:020000040800F2
:10000000605300249903000871350008F933000893
:1000100069350008F1050008413C000800000000B7
:10002000000000000000000000000000413800084F
:10003000F9050008000000008135000801390008BA
:10004000B7030008B7030008B7030008B7030008A8
:10005000B7030008B7030008B7030008B703000898
:10006000B7030008B7030008B7030008B703000888
:10007000B7030008B7030008B7030008B703000878
:10008000B7030008B7030008B7030008B703000868
:10009000B703000839060008B7030008B7030008D3
:1000A000B7030008B7030008B7030008B703000848
:1000B000B7030008B7030008B7030008B703000838
:1000C000B7030008B7030008B7030008B703000828
:1000D000B7030008B7030008B7030008B703000818
:1000E000B7030008B703000800000000B7030008CA
:1000F000B7030008B7030008B7030008B7030008F8
:10010000B7030008B7030008B7030008B7030008E7
:10011000B7030008B7030008B7030008B93A00089E
:10012000B7030008B7030008B7030008B7030008C7
:10013000B7030008B7030008B7030008B7030008B7
:1001400000000000000000000000000000000000AF
:10015000B7030008B7030008B7030008B703000897
:10016000B7030008B7030008B7030008B703000887
:10017000B7030008B7030008B70300080000000039
:10018000B7030008B7030008B7030008B703000867
:10019000B7030008B7030008B7030008B703000857
:1001A000B7030008B7030008B70300080000000009
:1001B000B7030008B7030008B7030008B703000837
:1001C000B7030008B70300080000000000000000AB
:1001D0000000000000000000B7030008000000005D
:1001E000000000000000000000000000000000000F
:1001F0000000000000000000B7030008B70300087B
:10020000B7030008B703000800000000B7030008A8
:10021000B7030008B7030008B7030008B7030008D6
:10022000B703000800000000B7030008000000004A
:10023000B7030008B703000800000000B703000878
:10024000B7030008B7030008B7030008B7030008A6
:10025000B7030008B7030008B7030008B703000896
:10026000B7030008B7030008B7030008B703000886
:10027000B7030008B7030008B70300080000000038
:10028000B7030008B7030008B7030008B703000866
:1002900000000000B7030008B703000800000000DA
:1002A00000000000B7030008B7030008B703000808
:1002B000B7030008B7030008B703000849060008A1
:1002C000B7030008B7030008B703000800F002F8FE
:1002D00000F052F814A696E8000CB244B344DA4594
:1002E00001D100F049F8BAE80F000FA696E83000F7
:1002F000A5EB040504EB0607AAEB0704A7F1010729
:100300004FEA15154FEA3414A4F10104AC4201D3AD
:1003100000F032F813F0010F18BFFB1A43F001038D
:1003200000F001F8DBE71847985F0000B85F0000B5
:10033000103A24BF78C878C1FAD8520724BF30C811
:1003400030C144BF04680C60704700007047000073
:100350000023002400250026103A28BF78C1FBD8CE
:10036000520728BF30C148BF0B6070471FB505F06A
:100370002DFF1FBD10B510BD00F0FDF81146FFF7B1
:10038000F5FF03F005FF00F01BF903B4FFF7F2FFE0
:1003900003BC00F023F900000A4880470A48804760
:1003A0000A480047FEE7FEE7FEE7FEE7FEE7FEE756
:1003B000FEE7FEE7FEE7FEE705480649064A074B6B
:1003C0007047000009060008E1390008CD02000866
:1003D000604D002460530024604F0024604F0024CF
:1003E000032A40F2308010F0030C00F0158011F861
:1003F000013BBCF1020F624498BF11F801CB00F839
:10040000013B38BF11F8013BA2F1040298BF00F88C
:1004100001CB38BF00F8013B11F0030300F07980F5
:10042000083AC0F0088051F8043B083A51F804CB70
:10043000A0E80810F5E7121D5CBF51F8043B40F836
:10044000043BAFF30080D20724BF11F8013B11F841
:1004500001CB48BF11F8012B24BF00F8013B00F885
:1004600001CB48BF00F8012B704702F0FF0343EABD
:10047000032242EA024200F024B84FF000020429AD
:10048000C0F0128010F0030C00F01B80CCF1040CC3
:10049000BCF1020F18BF00F8012BA8BF20F8022BF7
:1004A000A1EB0C0100F00DB85FEAC17C24BF00F89D
:1004B000012B00F8012B48BF00F8012B70474FF0CB
:1004C000000200B5134694469646203922BFA0E8A4
:1004D0000C50A0E80C50B1F12001BFF4F7AF0907B0
:1004E00028BFA0E80C5048BF0CC05DF804EB8900A1
:1004F00028BF40F8042B08BF704748BF20F8022BE4
:1005000011F0804F18BF00F8012B704770477047FB
:10051000704710B5203AC0F00B80B1E81850A0E841
:100520001850B1E81850A0E81850203ABFF4F5AFC1
:100530005FEA027C24BFB1E81850A0E8185044BF1D
:1005400018C918C0BDE810405FEA827C24BF51F88A
:10055000043B40F8043B08BF7047D20728BF31F87E
:10056000023B48BF11F8012B28BF20F8023B48BFCF
:1005700000F8012B7047754600F02CF8AE460500D8
:100580006946534620F00700854618B020B5FFF7AE
:1005900013FFBDE820404FF000064FF000074FF07A
:1005A00000084FF0000BAC46ACE8C009ACE8C0094D
:1005B000ACE8C009ACE8C00921F007018D467047DE
:1005C00010B50446AFF300802046BDE81040FFF7A9
:1005D000DCBE000000487047980000240149182044
:1005E000ABBEFEE7260002007047000000000000DE
:1005F000FEE700000000000070470000000000005F
:1006000072B600BFFEE7000044F60400C5F6020023
:10061000816841F0020181600168890409D40168A0
:1006200089045CBF01685FEA814102D401688904E2
:10063000F2D570470000000040F28030C2F2004066
:1006400000F05EBA0000000040F22040C2F200401C
:1006500000F056BA0000000090F89830013B012BE2
:100660000ED80068836D0B4212D0836D0B408B4215
:1006700032D1C36D43F00203C3658B050ED412E083
:1006800000F19C01012002220B681A430A607047A6
:10069000C36D43F00103C3658B0504D5D0F8E0308A
:1006A0001343C0F8E0304B0504D5D0F8E4301A43CA
:1006B000C0F8E4204FF6FF72436DC3F6CF720A40D4
:1006C0001A4342658A0F4AF614010020C4F2000161
:1006D0000B681A430A6070470323C3658B05DDD49A
:1006E000E1E700000000000090F89830022B1BD1D9
:1006F0002DE9F0430668D6F8C03013F07C5F1BD0BC
:10070000D6F8C4309B0221D4D6F8C4300C69C3F3A8
:10071000044CD1E90035002D8D6821D023432B43B3
:1007200043F0804E20E000BFD0F89C1041F008015B
:10073000C0F89C1001207047D0F89C1041F02001B7
:10074000C0F89C100120BDE8F08300BFD0F89C10D9
:1007500041F40071C0F89C100120BDE8F08300BF97
:1007600044EA834343EA050E836ED0F88450D1E90E
:1007700007970CFB03F48B6949EA0767D1F81480EB
:10078000D1F80C901F4305EB840347EA080745F8AE
:1007900024E047EA09475F60CF6887B146F26825E1
:1007A000083303320024C0F6000500BF171957F8BC
:1007B000037C1F51CF680434EF5DBC42F6D30121A6
:1007C00001FA0CF1C6F8D010C0F894100020BDE872
:1007D000F0830000000000007047000000000000EF
:1007E00090F89820013A012A0CD880B50A68002AAE
:1007F000CA680FD00B69072A43EA427E18D18B6979
:100800001BE000BFD0F89C1041F00201C0F89C1022
:1008100001207047072A19D10A69D1E906C31204D9
:1008200042EA032242EA0C0242F0605218E000BFA2
:10083000D1F808C04B6943EA8C73006F496800EB3C
:10084000C10240F831E05360002080BD8B68D1E9DF
:1008500004CE9B0743EAC26242EA0C4242EA0E021D
:100860004968C06E40F82120002080BD00000000D3
:1008700090F898C0BCF1010F0ED19200006842EAD6
:100880000111DDF800C041EA430141EA0C01C0F862
:1008900080100020704700BFD0F89C1041F0040188
:1008A000C0F89C100120704790F89830013B012B54
:1008B00008D8012A0ED10068826D22EA0101816503
:1008C00000207047D0F89C1041F00201C0F89C1045
:1008D000012070470068826D1143816500207047D8
:1008E000704700000000000070470000000000009A
:1008F0002DE9F04390F89870022F17D140291FD1AD
:100900000468274657F8A06F16F4FE0F3AD0D4F8C3
:10091000A460760640D0D4F8A460D4F8A450ED01C9
:10092000C6F3052E42D44425742656E0D0F89C1018
:1009300041F00801C0F89C100120BDE8F08300BF21
:10094000412915D10668374657F8B05F15F4FE0FF8
:1009500018D0D6F8B4506D061ED0D6F8B450D6F8DC
:10096000B460F601C5F3052E2AD44C25782634E070
:10097000076DB94206D24FF0000C54257C268E46F6
:100980002CE000BFD0F89C1041F02001C0F89C1072
:100990000120BDE8F08300BFD0F89C1041F48071C5
:1009A000C0F89C100120BDE8F08300BF3E684425DC
:1009B000B6F1FF3F4FF07406F4460FDC08E000BFCD
:1009C0003E684C25B6F1FF3F4FF07806F44605DC53
:1009D0000EF101043F6804EA174EF4464459855964
:1009E0000EFB04F405EB840E55F8247017F08047D5
:1009F000576055F8247027F0604608BFC7F38A4651
:100A0000166055F8247007F00057976055F8244099
:100A100004F000441461BEF80440D461BEF80640FE
:100A200014F00F04D460DEF8044004F48014546120
:100A3000DEF8044004F4001494619EF8074004F0CA
:100A40007F041462DEF804404FEAD474546228D064
:100A500046F268280026C0F600080EEB0604751C56
:100A6000277A9F55D76818F80770BD4219D29F1989
:100A7000657A7D70D56818F80590B51C4D453FBF67
:100A8000A57ABD70D56818F805903CBFF51C4D459A
:100A900007D2E47A0436FC70D46818F80440A64201
:100AA000DBD3402906D10068C0F8A8C00020BDE80B
:100AB000F08300BF412905D10068C0F8B8C000200C
:100AC000BDE8F0831F2909D80068012202FA01F16C
:100AD000C0F898100020BDE8F08300BF006801F066
:100AE0001F01012202FA01F1C0F89C100020BDE8AC
:100AF000F0830000000000007047000000000000CC
:100B00002DE9F04F87B004464AF61000C4F2000009
:100B100001684AF61400C4F20000026820680A4026
:100B2000D0F850B0D0F85490056D466D036D029327
:100B3000436D0193036D0693436D0593036D049319
:100B4000436D0393D0F854A0D0F850805FEACA53A5
:100B500011D518F480710ED04FF4807101654AF6FA
:100B600010010020C4F20001174608602046FFF77C
:100B7000C3FF3A4620685FEA4A510BEA090B4FEA85
:100B8000827740F14B814AF6100918F48061C4F273
:100B9000000910D0D0F8DC100092D0F8E420114009
:100BA0004FF4806202650020C9F80000204600F082
:100BB00027FE009A206805EA06050BF4704657B137
:100BC0000021016502F00300C9F800002046394603
:100BD000FFF702FE2068DDE9012101EA020705F0C6
:100BE0000F0546B106650020C9F8000020463146D1
:100BF00000F00EFE206807F0F00645B10565002004
:100C0000C9F800002046294600F0B2FB206846B132
:100C100006650020C9F800002046314600F0C8FBF8
:100C200020685FEA0A510CD518F4006109D04FF42E
:100C3000006101650020C9F80000204600F0ECFDCD
:100C400020685FEA8A5111D518F400710ED0D0F8EF
:100C5000D810D0F8E02011404FF400720265002057
:100C6000C9F80000204600F0CFFD20685FEA0A3195
:100C70000CD518F4002109D04FF4002101650020A3
:100C8000C9F80000204600F06FFB20685FEACA3117
:100C90000CD518F4803109D04FF480310165002063
:100CA000C9F80000204600F0A7FD20685FEA4A313D
:100CB000DDE9032101EA02050CD518F4802109D0F1
:100CC0004FF4802101650020C9F80000204600F0A3
:100CD0008FFD20685FEA8A31DDE9052102EA010221
:100CE00005F060710ED518F400330BD04FF40033CB
:100CF00003650023C9F80030D4F89C3043F080032A
:100D0000C4F89C3002F0715539B101650020C9F872
:100D100000002046FFF7E8FD206845B10565002189
:100D2000C9F80010D4F89C102943C4F89C10A9F508
:100D3000016188420AD0D4F89C0000286AD020467D
:100D400007B0BDE8F04FFFF7CBBD00BF606881681A
:100D50008907F0D0016A426A036A476A114003EAD0
:100D6000070202F03005D0F82080D0F82490D0F8A7
:100D700020B0466A026A069211F00F01426A05929B
:100D8000D0F824A0026A049203D00162204600F049
:100D900023FD08EA09072DB160682946056220464F
:100DA00000F022FD5FEA4A6006EA0B0607F4C07510
:100DB0000ED5049810F040000AD060684023C16B43
:100DC000C26B090C02F03F020362204600F008FDEE
:100DD000DDE9051000EA010706F4FC462DB1606864
:100DE00029460562204600F0F3FC07F4F02036B1F6
:100DF00061680E62D4F89C103143C4F89C1000283E
:100E000099D061680862D4F89C100843C4F89C002B
:100E100091E700BF07B0BDE8F08F00BF4AF61009A8
:100E2000C4F20009002F05EA06050BF470467FF4B2
:100E3000C7AED0E600000000F0B12DE9F04F83B05E
:100E40004AF200080446C4F200080068404533D066
:100E500094F89810B9B3816921F01001816100F014
:100E6000D3FD054620688169090707D500F0CCFD50
:100E7000401B0B28F6D312E001207047816941F036
:100E80000101816100F0C0FD054600BF2068816955
:100E9000C90721D100F0B8FD401B0B28F6D3012073
:100EA000D4F89C100843C4F89C00032084F89800F0
:100EB000012003B0BDE8F08F08F58071616094F8FF
:100EC00098100029C7D1002084F89900204600F02E
:100ED000B3F92068BFE700BF816941F00201816179
:100EE000217C826922F04002012918BF40328261D0
:100EF000617C826922F48042012908BF02F58042A8
:100F00008261A17C826922F48052012918BF02F516
:100F100080528261816921F44073D4E902120B434B
:100F20008361836923F0A4038361036923F01003C1
:100F300003619AB1012A0DD0022A09D08369032ADC
:100F400043F080038361036943F01002026105D11D
:100F5000202200E0042283691A438261D4E90572E9
:100F6000E369561E6FF0FF02256A02EB0323B1F519
:100F7000407F43EA4663A5F1010646EA030640F2D4
:100F80000003CFF6FF7303EB074746EA0701C16191
:100F900010D1D4E90B65D4E90917013F02EB062211
:100FA0006FF00F063A4306EB05173A4303EB014196
:100FB0001143C160236E2BB1616ED0F8C020114384
:100FC000C0F8C010E16DCDE90113D94246F2E81135
:100FD000C0F6000109D0D0F8C820A36E22F00702A5
:100FE00051F823301A43C0F8C820D4F840C0BCF1EF
:100FF000000F09D0D0F8BC20636C22F0070251F832
:1010000023301A43C0F8BC20D4F848B0BBF1000F1D
:101010000AD0D0F8BC20E36C22F0700251F82330E3
:1010200042EA0312C0F8BC20D4F850A0BAF1000F75
:101030000AD0D0F8BC20636D22F4E06251F823108E
:1010400042EA0121C0F8BC10404504D161688A68B9
:1010500022F003028A600021C4F89410C4F89C10A6
:10106000012184F8981004F13409D0F884104FF667
:10107000FC729143656C99E80C02009541EA82018B
:10108000C0F88410D0F8841021F47F0141EA0341B4
:10109000C0F884109918D0F888306FF38F0343EAB2
:1010A0008103C0F88830D0F8883023F4FE0343EA87
:1010B0000943C0F8883001EB4903D0F8A0606FF312
:1010C0008F0646EA8306C0F8A060D0F8A06026F438
:1010D000FE0646EA0C46C0F8A06005FB0C36D0F8C8
:1010E000B0306FF38F0343EA8603C0F8B030D0F816
:1010F000B03023F4FE0343EA0B43C0F8B030E36C96
:10110000D0F8AC506FF38F0503FB0B6645EA8605FC
:10111000C0F8AC50D4F8548008FB0A65D0F8F060F1
:101120006FF38F0646EA8506C0F8F060D0F8F0E06D
:10113000A66D2EF47C1747EA0647C0F8F070F7005A
:1011400007EB8507D0F8C0506FF38F052F43C0F829
:10115000C070D0F8C070009DDDF804E027F47C1763
:1011600005FB0CFC4AF2000547EA0E47C0F8C070C8
:10117000C4F2000503FB0BC305F54067D0F8C0506F
:1011800007EB820207EB810125F07C57029D47EABD
:101190000567C0F8C07001EBC90008FB0A3721677A
:1011A000A16E00EB8C0C606700EB8303E266C4E980
:1011B0001EC30EFB01F300EB87006943C4F88000F7
:1011C00000EBC600C4F8840000EB8300C4F888007C
:1011D00000EB81004DF2FC31C4F20001C4F8900034
:1011E000884201D920205BE682421FD211460020AE
:1011F00041F8040BD4F890309942BFF45AAE5060D5
:1012000002F10801D4F8903099423FBF906002F19A
:101210000C01D4F890309942BFF44BAED06010323C
:10122000D4F890108A42E1D343E600BF002003B017
:10123000BDE8F08F00000000B0B5B6B0044602A8CB
:10124000B8210025CDE93455CDE932553195FFF768
:1012500036F94DF200412068C4F20001884237D0CF
:101260004AF20001C4F20001884278D100200390C4
:101270004FF4004002904FF080501D9002A800F003
:1012800047FD08B1FFF7BCF940F2802144F2E0408D
:10129000C2F20041C5F602000A68002A02F101020A
:1012A0000A6008D1C16841F48071C160C16801F46D
:1012B0008071019101990168152441F008010160D4
:1012C0000068032100F0080001900198092030E037
:1012D0004FF4004002904FF080501D9002A80395FB
:1012E00000F016FD08B1FFF78BF940F2802144F2BF
:1012F000E040C2F20041C5F602000A68002A02F18D
:1013000001020A6008D1C16841F48071C160C168FE
:1013100001F480710191019901689F2441F0080155
:10132000016000684FF4405100F0080001900198FE
:101330000520359040F60040319102213291002184
:10134000CDE93311C5F6020031A900F069FA052193
:101350000022204600F074FC204600F05DFC36B010
:10136000B0BD000000000000704700000000000059
:1013700070B540F218364021C2F2004605463246AA
:1013800006F12C04234642F8040BFFF7B1FA40F2B1
:101390002041C2F200418D420CBF002870BD706830
:1013A0002146BDE8704002F04FBD00000000000083
:1013B000B0B540F24C310446C2F200410A4601F198
:1013C0002C03412142F8040BFFF792FA40F28031DE
:1013D000C2F200418C420CBF0028B0BD40F288240C
:1013E00040F24C35C2F20044C2F200452046294684
:1013F00002F042FE04F13000294602F03DFE04F105
:1014000060002946BDE8B04002F036BE0000000092
:1014100090F8981001290DD1022180F898100168E8
:101420008A6922F001028A610021C0F89C10002024
:10143000704700BFD0F89C1041F00401C0F89C1028
:10144000012070470000000090F89810022927D171
:10145000016851F8182F42F001020A600A68D207A9
:1014600004BF0A685FEAC27222D00A6822F0100242
:101470000A600A68120707D50A68120744BF0A689B
:101480005FEA027200F1D2800A6842F002020A604A
:101490000021C0F89410012280F898200846704777
:1014A000D0F89C1041F00801C0F89C100120704752
:1014B0000A68D20704BF0A685FEAC272D5D10A6817
:1014C000D20704BF0A685FEAC272CED10A68D207A7
:1014D00004BF0A685FEAC272C7D10A68D20704BFB4
:1014E0000A685FEAC272C0D10A68D20704BF0A68FC
:1014F0005FEAC272B9D10A68D20704BF0A685FEA1C
:10150000C272B2D10A68D20704BF0A685FEAC27227
:10151000ABD10A68D20704BF0A685FEAC272A4D1DD
:101520000A68D20704BF0A685FEAC2729DD10A68DE
:10153000D20704BF0A685FEAC27296D10A68D2076E
:1015400004BF0A685FEAC2728FD10A68D20704BF7B
:101550000A685FEAC2727FF488AF0A68D20704BFE4
:101560000A685FEAC2727FF480AF0A68D20704BFDC
:101570000A685FEAC2727FF478AF0A68D20704BFD4
:101580000A685FEAC2727FF470AF0A68D20704BFCC
:101590000A685FEAC2727FF468AF0A68D20704BFC4
:1015A0000A685FEAC2727FF460AF0A68D20704BFBC
:1015B0000A685FEAC2727FF458AF0A68D20704BFB4
:1015C0000A685FEAC2727FF450AF0A68D20704BFAC
:1015D0000A685FEAC2727FF448AF0A68D20704BFA4
:1015E0000A685FEAC2727FF440AF0A68D20704BF9C
:1015F0000A685FEAC2727FF438AF0A68D20704BF94
:101600000A685FEAC2727FF430AF0A68D20704BF8B
:101610000A685FEAC2727FF428AF0A68D20704BF83
:101620000A685FEAC2727FF420AFC3E00A6812075B
:1016300044BF0A685FEA02727FF526AF0A681207A4
:1016400044BF0A685FEA02727FF51EAF0A6812079C
:1016500044BF0A685FEA02727FF516AF0A68120794
:1016600044BF0A685FEA02727FF50EAF0A6812078C
:1016700044BF0A685FEA02727FF506AF0A68120784
:1016800044BF0A685FEA02727FF5FEAE0A6812077D
:1016900044BF0A685FEA02727FF5F6AE0A68120775
:1016A00044BF0A685FEA02727FF5EEAE0A6812076D
:1016B00044BF0A685FEA02727FF5E6AE0A68120765
:1016C00044BF0A685FEA02727FF5DEAE0A6812075D
:1016D00044BF0A685FEA02727FF5D6AE0A68120755
:1016E00044BF0A685FEA02727FF5CEAE0A6812074D
:1016F00044BF0A685FEA02727FF5C6AE0A68120745
:1017000044BF0A685FEA02727FF5BEAE0A6812073C
:1017100044BF0A685FEA02727FF5B6AE0A68120734
:1017200044BF0A685FEA02727FF5AEAE0A6812072C
:1017300044BF0A685FEA02727FF5A6AE0A68120724
:1017400044BF0A685FEA02727FF59EAE0A6812071C
:1017500044BF0A685FEA02727FF596AE0A68120714
:1017600044BF0A685FEA02727FF58EAE0A6812070C
:1017700044BF0A685FEA02727FF586AE0A68120704
:1017800044BF0A685FEA02727FF57EAE0A681207FC
:1017900044BF0A685FEA02727FF576AE0A681207F4
:1017A00044BF0A685FEA02727FF56EAE0A681207EC
:1017B0007FF56AAED0F89C1041F00101C0F89C1092
:1017C000032180F8981001207047000000000000FD
:1017D000704700000000000070470000000000009B
:1017E000704700000000000070470000000000008B
:1017F000704700000000000070470000000000007B
:10180000704700000000000070470000000000006A
:10181000704700000000000070470000000000005A
:101820002DE9F04F85B00F680390002F00F0E6809F
:10183000039842F2004600F126428C4602F1FF7204
:10184000C5F602060A21B0424FEAB22600F1200096
:1018500008BF09210090082E38BF4FEAB2210024AA
:1018600000264FF000080191CDF808C00CE000BF41
:1018700008F10108DCF8007037FA08F106F10206F9
:1018800004F1040400F0BA80012000FA08F217EA1B
:101890000209EDD0DCF804A003200AF0030B00FAE3
:1018A00006F5ABF10107012F12D803988768DCE930
:1018B00002C3AF43B3403B438360CAF3001743689E
:1018C00023EA020207FA08F31A43426008E000BF65
:1018D000DCF808C0BBF1030F08BFBCF1010F2DD02D
:1018E00003994FEA480EE8430CFA06F3CA68BBF1C5
:1018F000020F22EA050242EA0302CA601AD18346B5
:101900006FF0030000EA5802009804F01C050F2154
:1019100050F802C001FA05FA02992CEA0A078C462F
:101920000B69AB403B438350D1F804A058460AF002
:10193000030B0BE0DDF808C008E000BF4FF0030B1D
:10194000B6460BFA06F2DDF808C0D043039B1AF442
:10195000403F1A6802EA00010BFA0EF241EA020166
:1019600019603FF485AF44F2F44040F20845C5F6F3
:101970000200C5F60005016841F00201016001683E
:101980000F2001F00201049128F00301049A04F0F1
:101990000C024B5900FA02F70198BB4300FA02F21D
:1019A0004FF0B0401A434A510168DCF8042041EA84
:1019B0000903D70258BF21EA09039702036040F2E6
:1019C0000400C5F60000016841EA090358BF21EA96
:1019D000090397030360D0F8801041EA090358BF58
:1019E00021EA0903D203C0F88030C16F41EA09033C
:1019F00058BF21EA0903C3673AE700BF05B0BDE855
:101A0000F08F00000000000044F26060C2F200406D
:101A1000006870470000000040F2000044F260617E
:101A2000C2F20040C2F2004100780A681044086027
:101A3000704700000000000080B5032000F030F97E
:101A400001F02EF844F2184146F25823C5F602017F
:101A5000C0F600030A68C2F303229A5C096801F029
:101A60000F0102F01F02595CD04040F20C02C2F29A
:101A7000004201F01F0120FA01F1116040F208015B
:101A8000C2F2004108600F2000F00AF800281CBFD5
:101A9000012080BD00F0A8F8002080BD00000000FB
:101AA0000F2847D8B0B58AB0044637200022214617
:101AB000002500F0C5F8372000F0AEF840F2040031
:101AC000C2F20040046044F2E840C5F6020001683A
:101AD00041F020010160006801A900F0200002909F
:101AE000029802A800F080FF079C002C18BF012478
:101AF00000F0A6FF4DF68361A040C4F21B3141F215
:101B00000042A0FB010140F2C040C2F200404FF091
:101B1000FF33C4F20002026003EB9141C0E90115FA
:101B200040F2E731C0E9031501F0EEFA20B10120DF
:101B30000AB0B0BD0120704740F2C040C2F2004080
:101B400001F016FB0AB0B0BD10B54EF6A05E4378AA
:101B5000CEF2000E90F800C04EF8083CDEF80030DF
:101B600023F00103CEF8003043684EF8043C037BB9
:101B7000C27A817A447B120642EA0372837B42EA8C
:101B8000C141C27B41EA8441447A41EA4341007A3F
:101B900041EA024141EA042141EA400040EA0C00E6
:101BA000CEF8000010BD00004EF62450CEF200002A
:101BB000BFF35F8F016821F480310160002101676C
:101BC00070470000000000004EF6245140F0010074
:101BD000CEF200010867086840F480300860BFF367
:101BE0004F8FBFF36F8F704781B044F2F4400022F3
:101BF000C5F60200016841F00201016000680F2192
:101C000000F0020000906FF00100009B01B000F0B6
:101C100017B8000000000000002848BF704700F01F
:101C20001F01012202FA01F14EF20012C0F34A1024
:101C3000CEF2000242F820107047000000000000C1
:101C400070B54EF60C5C4FF0FF36CEF2000C00F192
:101C5000604505F56445DCF80030C3F3022E8EF0D4
:101C60000703042B28BF0423BEF1030406FA03F381
:101C700021EA030100F00F0338BF0024043B0028D1
:101C8000634406FA04F048BF03F10C05A14022EAC0
:101C9000000008430001287070BD00000000000033
:101CA0004EF60C514FF6FF03CEF200010A681A40BF
:101CB00060F30A2242F0806040F0FD7008607047D7
:101CC000B0B544F60C05C5F6020529684907296830
:101CD00006D401F00701081A18BF0120B0BD00BFEB
:101CE00021F0070108432860FFF78EFE044600BF7D
:101CF00055F8080C800407D4FFF786FE001BB0F5EA
:101D00007A7FF5D90120B0BD0020B0BD00000000F1
:101D10002DE9F0470446C07844F22C480007C5F688
:101D2000020828D5606E4FEA305103292AD8DFE82F
:101D300001F0030B131B00BFD8F8001041F4003171
:101D4000C8F8001010E000BF04F10800022101F003
:101D50004BFC064680B906E004F12800022101F0A0
:101D6000D7FC064640B9606ED8F8241021F4401123
:101D70000843C8F8240000266078C00706D135461D
:101D80002FE000BF01266078C007F8D0A06D0428BE
:101D90003ED83546DFE800F004140E0B0B0000BF00
:101DA000D8F80000354640F40030C8F800002F464F
:101DB000C5B90DE004F12800002101F0A9FC04E000
:101DC00004F10800002101F00FFC05462F464DB933
:101DD000D8F82400A16D20F0070000250843C8F8BA
:101DE00024003746607840073AD5D4F8A4004FEA7B
:101DF0007050052818D8DFE800F0031D11232323B5
:101E0000D8F8000040F40030C8F8000018E000BF27
:101E10000125012760784007E7D421E004F128007C
:101E2000002101F075FC0AE0012501266078000719
:101E30001AD44FE004F10800002101F0D5FB05465B
:101E40002E461DB1607800070ED443E0D8F82C0070
:101E5000D4F8A41020F4600000250843C8F82C0032
:101E60003E466078000735D5D4F8A8004FEA3060C8
:101E7000052813D8DFE800F004180C1E1E1E00BF52
:101E8000D8F8000040F40030C8F8000012E000BFAD
:101E900004F12800002101F03BFC0AE001250127A4
:101EA000E07880071AD434E004F10800002101F042
:101EB0009BFB05462F461DB1E07880070ED428E035
:101EC000D8F82C00D4F8A81020F0E06000250843D2
:101ED000C8F82C003746E07880071AD5E06C4FEA46
:101EE0003010032838D8DFE800F009032D0900BFBF
:101EF000D8F8000040F40030C8F800002E464DB974
:101F0000D8F82000E16C20F0300000250843C8F824
:101F100020003E466078C00639D5E06D4FEA30308B
:101F2000042847D8DFE800F004221C0A0A0000BF9A
:101F3000D8F8000040F40030C8F800002F463DBB40
:101F40001CE000BF04F10800022101F04DFB054632
:101F5000002D2E46DED1D3E701250126DAE700BFAA
:101F600004F12800002101F0D3FB04E004F1080093
:101F7000002101F039FB05462F464DB9D8F8240061
:101F8000E16D20F4E04000250843C8F824003746FE
:101F90006078800635D5206E4FEA3040052815D888
:101FA000DFE800F0041A0E04040400BF2E46DDB979
:101FB0001EE000BF0125012760788006EBD420E0F9
:101FC00004F12800012101F0A3FB0AE0012501260C
:101FD0006078400619D449E004F10800012101F0BD
:101FE00003FB05462E461DB1607840060DD43DE04A
:101FF000D8F82400216E20F4E02000250843C8F81A
:1020000024003E466078400630D5D4F8AC004FEA54
:10201000307005280ED8DFE800F003130703030330
:102020002F46ADB918E000BF04F12800012101F0EE
:102030006FFB0AE001250127607800061AD43CE016
:1020400004F10800012101F0CFFA05462F461DB129
:10205000607800060ED430E0D8F82C00D4F8AC102C
:1020600020F0E04000250843C8F82C00374660788F
:10207000000622D5E06E58B1B0F1005F0CD0B0F18F
:10208000805F37D1D8F8000040F40030C8F8000075
:102090002E469DB908E000BF04F10800012101F0BF
:1020A000A3FA05462E464DB9D8F82400E16E20F07B
:1020B000405000250843C8F824003E46E078C00799
:1020C0001DD0A06C032855D8DFE800F008024A08AC
:1020D000D8F8000040F40030C8F80000A9467DB9E7
:1020E000D8F82000A16C20F0030000250843C8F8B0
:1020F000200004E001250126E078C007E1D1B146C7
:10210000A078400602D44F4618E000BFD8F8D403A8
:1021100040F48070C8F8D403FFF776FC064600BF91
:10212000D8F8D403C00507D4FFF76EFC801B6428E1
:10213000F6D90325032701E02F46FDB12078C0071B
:1021400000F06F80A06F4FEAF00005284ED8DFE85E
:1021500000F0035347030303002D2E4654D157E0EC
:1021600004F10800022101F03FFA0546002DA946BE
:10217000C6D1B5E701254FF00109C1E7D8F84410F1
:10218000D4F8B000414011F4407F11D0D8F8441089
:10219000D8F8442042F48032C8F84420D8F84420CB
:1021A00021F4407122F48032C8F84420C8F8441069
:1021B000B0F5807F40F0D082FFF726FC064641F262
:1021C000883A0325032700BFD8F84400800700F1B0
:1021D000C182FFF719FC801B5045F5D9AEE700BF5F
:1021E00004F12800012101F093FA0AE001250126FB
:1021F0002078800719D446E004F10800012101F09D
:10220000F3F905462E461DB1207880070DD43AE03B
:10221000D8F82800A16F20F0380000250843C8F83E
:1022200028003E46207880072DD5606F05280FD8FE
:10223000DFE800F004140804040400BF2F46ADB921
:1022400018E000BF04F12800012101F061FA0AE062
:10225000012501272078400719D447E004F1080040
:10226000012101F0C1F905462F461DB12078400734
:102270000DD43BE0D8F82800616F20F0070000255E
:102280000843C8F828003746207840072ED5D4F8F0
:10229000900005280ED8DFE800F0031307030303BE
:1022A0002E46ADB918E000BF04F12800012101F06D
:1022B0002FFA0AE001250126207880061AD44BE087
:1022C00004F10800012101F08FF905462E461DB1E9
:1022D000207880060ED43FE0D8F82C00D4F8901077
:1022E00020F0070000250843C8F82C003E4620785F
:1022F000800631D5D4F88C004FEA307005280FD80D
:10230000DFE800F004140804040400BF2F46ADB950
:1023100018E000BF04F12800022101F0F9F90AE0F9
:1023200001250127207840061AD44BE004F108006B
:10233000002101F059F905462F461DB120784006CD
:102340000ED43FE0D8F82800D4F88C1020F0E040FC
:1023500000250843C8F8280037462078400631D5C4
:10236000D4F898004FEAB02005280FD8DFE800F035
:1023700004140804040400BF2E46ADB918E000BFE1
:1023800004F12800022101F0C3F90AE00125012629
:10239000207800061AD44EE004F10800002101F074
:1023A00023F905462E461DB1207800060ED442E0E2
:1023B000D8F82C00D4F8981020F4E05000250843F9
:1023C000C8F82C003E462078000634D5D4F89C008E
:1023D0004FEA7030052815D8DFE800F0041A0E0423
:1023E000040400BF2F46E5B12068010727D4C106C9
:1023F0003ED4000355D477E004F12800022101F017
:1024000087F90AE00125012720680107EFD516E0CA
:1024100004F10800002101F0E7F80546002D2F46E1
:10242000E2D1D8F82C00D4F89C1020F460400025AC
:102430000843C8F82C00374620680107D7D5D4F8E0
:102440008000B0F5805F09D104F12800022101F07D
:102450005FF9002818BF0127D4F88000D8F82810A9
:1024600021F440510843C8F828002068C106C0D5AF
:10247000D4F89400B0F5807F09D104F1280002213E
:1024800001F046F9002818BF0127D4F89400D8F8C5
:102490002C1021F440710843C8F82C002068000378
:1024A00022D5D4F8A000B0F5003F11D0B0F5803FA0
:1024B00008D0002844D104F10800002101F094F86C
:1024C00005E000BF04F12800022101F021F90546D2
:1024D0002E4655B9D8F82C00D4F8A01020F440307E
:1024E00000250843C8F82C003E46A07840072CD5AC
:1024F000D4F88400B0F5401F0BD0B0F5001F0BD00E
:10250000B0F5801F2AD1D8F8000040F40030C8F898
:1025100000002F46D5B907E004F12800012101F0A1
:10252000F7F805462F468DB9D8F82800D4F884105E
:1025300020F4401000250843C8F8280005E000BF3B
:1025400001250126A0784007D2D43746A078C007DD
:1025500009D13E462168880015D532E001250127C2
:10256000A078C007F5D0206DB0F5803F10D018BB23
:10257000D8F8000040F40030C8F800002E4685B1BD
:10258000216888001DD460688A0326D465E000BFF6
:1025900004F10800022101F027F80546002D2E461F
:1025A000EED1D8F82000216D20F4803000250843BA
:1025B000C8F82000CDE700BF01250126216888006A
:1025C000E1D504F12800022101F0A2F8002818BF8B
:1025D0000126D4E900108A033FD5E26F6FF00103B2
:1025E00003EB3223022B0BD34FEA322343B1012BEF
:1025F00040F0AA80D8F8003043F40033C8F8003027
:1026000025B3CA022CD48A0234D44A003CD4CA0F5F
:1026100049D1090251D4C1075AD1810763D4410776
:102620006CD4010776D4C10600F18080800607D5FE
:1026300004F12800022101F06BF8002818BF0125E1
:10264000002D18BF01252846BDE8F087D8F82830AE
:1026500023F440731A43C8F828203546CA02D2D55D
:10266000D8F82420236F22F000421A43C8F824200F
:102670008A02CAD5D8F82420A36E22F080721A43A9
:10268000C8F824204A00C2D558F81C2C22F4004275
:1026900048F81C2CD4F8B42058F81C3C1A4348F8CD
:1026A0001C2CCA0FB5D0D8F82020636D22F0405200
:1026B0001A43C8F820200902ADD5D8F82810D4F85C
:1026C000882021F440011143C8F82810C107A4D084
:1026D00004F10800002100F087FF002818BF05461C
:1026E000606881079BD504F10800012100F07CFFA0
:1026F000002818BF05466068410792D504F108001C
:10270000022100F071FF002818BF0546606801072C
:102710007FF589AF04F12800002100F0F9FF0028BF
:1027200018BF05466068C1067FF580AF04F1280038
:10273000012100F0EDFF002818BF05466068800603
:102740003FF576AF7CE700BF0125CA027FF55BAF9E
:1027500086E700BFD4F8B0004FF6CF7358F81C2CB2
:10276000C0F2FF0300F4407122F47C5203EA10131C
:102770006FF31F30B1F5407F08BF1A43002548F8BA
:102780001C2CD8F844100843C8F84400FFF7BBBC21
:102790002DE9F04381B0002800F0208142F20009C9
:1027A0000446C5F20029D9F8000000F00F0081426C
:1027B0000DD9D9F8000020F00F000843C9F8000037
:1027C000D9F8000000F00F00884240F0078120682F
:1027D00044F218464207C5F602060AD52269336854
:1027E00003F070039A4204D9336823F070031A434C
:1027F000326002070AD56269736803F070039A4277
:1028000004D9736823F070031A437260C2060AD5B4
:10281000A269736803F4E0639A4204D9736823F4ED
:10282000E0631A43726082060AD5E269B36803F076
:1028300070039A4204D9B36823F070031A43B2605C
:1028400010F002020AD0E368376807F00F07BB42B6
:1028500004D9376827F00F073B433360C3073FD0E5
:10286000306820F47062D4E901031A433260012811
:1028700056F8182C0AD0032804D002280AD1920353
:102880000BD4ABE0920108D4A8E000BFD20504D479
:10289000A4E000BF520740F1A180884656F8081C0A
:1028A00021F00701084346F8080CFFF7ADF805468C
:1028B00041F2883756F8080C616800F03800B0EB38
:1028C000C10F09D0FFF7A0F8401BB842F2D903208E
:1028D00001B0BDE8F08300BF2068414600F002026D
:1028E00052B1E268336803F00F039A4204D23368AE
:1028F00023F00F031A433260D9F8002002F00F02D0
:1029000091420CD2D9F8002022F00F020A43C9F8F4
:102910000020D9F8002002F00F028A425ED1410760
:102920000AD52169326802F07002914204D23268FD
:1029300022F070021143316001070AD561697268A3
:1029400002F07002914204D2726822F070021143C8
:102950007160C1060AD5A169726802F4E062914211
:1029600004D2726822F4E0621143716080060AD5D5
:10297000E069B16801F07001884204D2B16821F0C9
:1029800070010843B06000F08BF8316846F25822BD
:10299000C0F60002C1F30321515C336803F00F035A
:1029A00001F01F01D25C20FA01F102F01F0040F299
:1029B0000C02C2F2004221FA00F0106040F2040062
:1029C00040F20802C2F20040C2F200420068116008
:1029D00001B0BDE8F043FFF763B800BF012001B0CC
:1029E000BDE8F083000000003F22026044F218427C
:1029F000C5F6020252F8083C03F00703436013686F
:102A000003F470638360136803F00F03C3601368FB
:102A100003F070030361536803F07003436153686C
:102A200003F4E0638361926802F07002C26142F2D3
:102A30000000C5F20020006800F00F000860704739
:102A400080B500F02DF844F2184C46F25823C5F634
:102A5000020CC0F60003DCF80020C2F303229A5CEB
:102A6000DCF8001001F00F0102F01F02595CD040A9
:102A700040F20C02C2F2004201F01F0120FA01F103
:102A8000116040F20802C2F200421060DCF804005B
:102A9000C0F30210185C00F01F0021FA00F080BDA6
:102AA00044F20041C5F602010869C0F3C2000328E0
:102AB00016D002280ED0002832D10868800649F2CC
:102AC0000000C0F2D03058BF70470968C1F3C1019F
:102AD000C840704743F20060C0F26E10704700BFFC
:102AE0008B6A886AD1F82CC04A6BC0F30510E8B134
:102AF000C2F3CC0203F0030300EE102A9FED2A1A62
:102B0000B8EE400A20EE010A9FED281ADFE803F034
:102B1000022110210A6892060ED49FED261A18E0B1
:102B200040F60010C0F23D00704700BF0020704723
:102B30009FED1F1A0DE000BF0A6849F20003C0F2C2
:102B4000D033C2F3C10223FA02F201EE102AB8EE2A
:102B5000411A0A6B9FED183A6FF35F2202EE102ABA
:102B60005FEACC7203FE000A03EE100A086BB8EEAF
:102B7000422AC0F34620B8EE433A013030EE020A52
:102B8000B7EE002A81EE031A30EE020A21EE000AA7
:102B900001EE100AB8EE411A80EE010ABCEEC00A3E
:102BA00010EE100A704700BF000000390024744A7C
:102BB000001BB74B0024744C000000000000000014
:102BC00070B3F0B581B00446007844F20046C00707
:102BD000C5F6020626D1207880076AD5306910F044
:102BE0003801B06A42D0182908BF5FEA80703DD032
:102BF000E0683168002800F02D8121F019010843B8
:102C00003060FEF701FF0546306840074AD4FEF702
:102C1000FBFE401B0228F7D9032001B0F0BD00BF26
:102C200001207047306900F03801B06A102905D0E2
:102C300018290BD100F00300022807D13068800367
:102C4000C9D560680028C6D1AAE000BF61683068B5
:102C5000002900F03981B1F5A02F00F02D81B1F5E8
:102C6000803F40F0478140F4803049E130684007C0
:102C7000E06802D5002800F09380316821F0190146
:102C800008433060FEF7C0FE054600BF30684007CD
:102C900008D4FEF7B9FE401B02284FF00300F5D917
:102CA00001B0F0BD7068216920F0FE4040EA01608B
:102CB00070602078C0061AD5306900F03801B06A1B
:102CC000082907D0182940F0858000F0030001286A
:102CD00040F080803068C00502D5E06980285FD16F
:102CE000F068216A20F07C5040EA0160F0602078B2
:102CF00000073FD42078800656D42078400700F1A2
:102D00008180656A9DB3306900F03800182840F072
:102D10001981012DB16A306B42D001F00302A36A20
:102D20009A423DD1C1F30511E26A914238D1014680
:102D3000226B6FF35F21013A914231D1C0F34622F9
:102D4000616B01398A422BD1C0F30642A16B013974
:102D50008A4225D1C0F30660E16B013988421FD158
:102D6000706BA16CC0F3CC00814240F0A5810020C3
:102D700001B0F0BD60690028706F59D040F00100CB
:102D80007067FEF741FE0546706F8007B2D4FEF70C
:102D90003BFE401B0228F7D9032001B0F0BD00BF65
:102DA000012001B0F0BD00BFA0690028306871D0DB
:102DB00040F480503060FEF727FE054630688004FE
:102DC0009BD4FEF721FE401B0228F7D9032001B057
:102DD000F0BD00BFE0690028306800F0A18040F03D
:102DE00080003060FEF710FE054600BF3068C00569
:102DF0003FF576AFFEF708FE401B02284FF00300B8
:102E0000F4D94DE7D6F8000440F48070C6F8000409
:102E1000FEF7FAFD054600BFD6F80004C0052BD426
:102E2000FEF7F2FD401B6428F6D9032001B0F0BD87
:102E300020F001007067FEF7E7FD0546706F800720
:102E40007FF558AFFEF7E0FD401B02284FF003006E
:102E5000F4D925E721F001003060FEF7D5FD0546E5
:102E6000306840077FF525AFFEF7CEFD401B0228F6
:102E70004FF00300F4D913E7A168306F002900F088
:102E80008B80052900F08080012940F09D8040F072
:102E900001009FE020F480503060FEF7B5FD05464C
:102EA000306880047FF529AFFEF7AEFD401B022895
:102EB0004FF00300F4D9F3E640F48020306030682E
:102EC00040F480301CE000BF20F480303060306877
:102ED00020F480203060FEF797FD054630688003BF
:102EE0007FF579AEFEF790FD401B64284FF003009C
:102EF000F4D9D5E620F480303060306820F48020AA
:102F00003060FEF781FD0546306880033FF563AE13
:102F1000FEF77AFD401B6428F6D9032001B0F0BD0E
:102F200020F080003060FEF76FFD05463068C00578
:102F30007FF5DDAEFEF768FD401B02284FF0030071
:102F4000F4D9ADE6306820F080703060FEF75CFDAB
:102F5000022D05460CD100BF306880014CD5FEF72C
:102F600053FD401B02284FF00300F5D998E600BF3F
:102F7000306880017FF5FBAEFEF746FD401B02285E
:102F80004FF00300F4D98BE640F004003067306F57
:102F900040F001001EE000BF20F001003067306FFC
:102FA00020F004003067FEF72FFD054641F2883718
:102FB000306F80077FF5A5AEFEF726FD401BB842B7
:102FC0004FF00300F4D96BE620F001003067306F5A
:102FD00020F004003067FEF717FD054641F2883700
:102FE000306F80073FF58DAEFEF70EFD401BB842F7
:102FF0004FF00300F4D953E604F12807B06A40F219
:10300000F33188438ECF0843591E40EA02104FF433
:103010007E426FF35F21B06202EB47204FF4FE0265
:1030200080B2E36B0844A16B02EB01414FF0FE421A
:1030300001F4FE0102EB0362084402F0FE41084481
:103040003063F06A4FF6F87120F00100F062706BA7
:10305000A26C884340EAC2007063F06A216C20F0E1
:103060000C000843F062F06A616C20F00200084333
:10307000F062F06A40F48030F062F06A40F40030B0
:10308000F062F06A40F48020F062F06A40F00100E3
:10309000F062306840F080703060FEF7B5FC0446A6
:1030A000306880013FF563AEFEF7AEFC001B0228DE
:1030B0004FF00300F4D9F3E5F06A20F00100F0626C
:1030C000FEF7A2FC0546FEF79FFCA842FBD0706B02
:1030D0004FF6F871A26C884340EAC2007063F06A50
:1030E00040F00100F062002001B0F0BD00000000DF
:1030F0007047000000000000704700000000000062
:10310000704700000000000060B310B5044690F85E
:103110003D0028B9002084F83C00204600F024F847
:10312000022084F83D002068211D00F0CDFC012024
:1031300084F8480084F83E0084F83F0084F840009A
:1031400084F8410084F8420084F8430084F8440085
:1031500084F8450084F8460084F8470084F83D0070
:10316000002010BD012070477047000000000000E3
:1031700090F83D10012927D1022180F83D10016807
:103180004DF6FF70C4F200008142C86840F00100B3
:10319000C8601BDC40F2FF70C4F2000081422DDDEC
:1031A00040F60000C4F2000081423DD040F60040ED
:1031B000C4F20000814237D041F60000C4F20000A2
:1031C000814231D03CE000BF012070474FF6FF70D4
:1031D000C4F2000081421BDD0020C4F201008142E4
:1031E00022D044F20000C4F2010081421CD040F21F
:1031F0000040C4F20100814216D021E0B1F1804FBD
:1032000012D040F20040C4F2000081420CD017E01E
:103210004EF20000C4F20000814205D04EF20040A0
:10322000C4F2000081420BD107228868C0F201027B
:1032300002400020062A18BFB2F5803F00D1704737
:10324000086840F00100086000207047000000009E
:103250007047000000000000F0B581B0044600682F
:10326000C5680669B10717D515F0020114D06FF0D3
:1032700002010161012121778069800704D0204685
:10328000FFF7E6FF06E000BF204600F09DF820466D
:1032900000F09EF800202077700719D515F0040083
:1032A00016D020686FF00401016102212177806946
:1032B00010F4407F04D02046FFF7CAFF06E000BFAD
:1032C000204600F081F8204600F082F800202077A8
:1032D000300717D515F0080014D020686FF00801EA
:1032E000016104212177C069800703D02046FFF7E0
:1032F000AFFF05E0204600F067F8204600F068F8D0
:1033000000202077F00619D515F0100016D020689F
:103310006FF01001016108212177C06910F4407F2E
:1033200004D02046FFF794FF06E000BF204600F0DF
:103330004BF8204600F04CF800202077F00718BF2B
:1033400015F0010006D020686FF0010101612046F0
:1033500000F042F805F0800716F4025F18BF002F56
:1033600002D1F00509D410E020686FF40251016128
:103370002046FFF7C1FEF00507D537B120686FF48E
:10338000807101612046FFF7B3FE700609D515F084
:10339000400006D020686FF040010161204600F037
:1033A00027F8B0060CD515F0200009D020686FF082
:1033B00020010161204601B0BDE8F040FFF7A0BE4A
:1033C00001B0F0BD000000007047000000000000E8
:1033D000704700000000000041F200410068C4F2A4
:1033E0000001884218BF7047FEF716BB00000000BE
:1033F0007047000000000000FEE700000000000031
:1034000080B540F280304AF20001C2F20040C4F2BE
:10341000000106224FF01D0C01600021C0E90211DD
:10342000C0F80F10032342610A228261C0E907C27B
:10343000C0E90932C0F82CC00522C0E90C21816323
:103440000122C263102202640423C0E91132C0E9E0
:103450001331C0E91531C1650822C0E9182183661E
:10346000FDF7EAFC002808BF80BDBDE88040FDF7FD
:10347000C7B800000000000080B540F220404DF2C7
:103480000041C2F200401D2200F11C0EC4F20001F6
:1034900001600021C0E90211C0F80F104FF0030CC9
:1034A000C0F814C00A2383618EE80C10C0E90A3208
:1034B000052202634FF48062426301220823C0E9BF
:1034C0000E211022026404224264C0E91232C0E9D3
:1034D0001412C0E91611C0E918118266FDF7ACFCA0
:1034E000002808BF80BDBDE88040FDF789B8000016
:1034F00010B543F6F90046F27822C0F60000C0F697
:103500000002002100F0E4FE40F2F80446F234220A
:10351000C2F20044C0F600020021206043F66900B8
:10352000C0F6000000F0D4FE606010BD0000000096
:1035300082B044F2E040C5F60200016841F080012B
:103540000160016801F0800101910199016841F079
:1035500008010160006800F008000090009802B0C7
:103560007047000000000000FEE7000000000000BF
:10357000FEE7000000000000000000000000000066
:10358000EFF30980BFF36F8F154B1A681EF0100F11
:1035900008BF20ED108A20E9F04F10602DE90900E6
:1035A0004FF0500080F31188BFF34F8FBFF36F8F40
:1035B00002F012F84FF0000080F31188BDE8090016
:1035C00019680868B0E8F04F1EF0100F08BFB0ECA3
:1035D000108A80F30988BFF36F8F704700BF00BF68
:1035E000FC05002400000000F0B581B044F22C4737
:1035F000C5F6020757F8042C02F00302032A03D190
:10360000012001B0F0BD00BF054657F82C0C0C4658
:1036100020F0806047F82C0CFEF7F6F9064600BF54
:1036200057F82C0C000105D5FEF7EEF9801B022897
:10363000F6D964E057F8040CEE6895E80E0020F423
:103640007C30012C40EA0130A2F101016FF35F21CF
:103650004FF47E4202EB432247F8040C92B24FF043
:10366000FE4302EB01004FF4FE012A6901EB064123
:1036700001F4FE0103EB0262084402F0FE4108443B
:10368000F8603868696920F0C00040EA01003860DD
:103690003868A96920F0200040EA010038603868E5
:1036A0004FF6F87120F0100038603869EA6920EAB6
:1036B00001004FF4001140EAC2003861386808BFC9
:1036C0004FF4801140F01000002C386008BF4FF418
:1036D000002138680843386057F82C0C40F08060AF
:1036E00047F82C0CFEF790F9044600BF57F82C0C55
:1036F000000107D4FEF788F9001B0328F6D3032046
:1037000001B0F0BD002001B0F0BD000000000000DD
:10371000F0B581B044F22C47C5F6020757F8042CE7
:1037200002F00302032A03D1012001B0F0BD00BF63
:10373000054657F82C0C0C4620F0805047F82C0C0E
:10374000FEF762F9064600BF57F82C0C800005D53D
:10375000FEF75AF9801B0228F6D964E057F8040CEA
:10376000EE6895E80E0020F07C70012C40EA0150D4
:10377000A2F101016FF35F214FF47E4202EB43227D
:1037800047F8040C92B24FF0FE4302EB01004FF4F5
:10379000FE012A6901EB064101F4FE0103EB02621E
:1037A000084402F0FE41084478613868696920F4F1
:1037B000406040EA010038603868A96920F4007070
:1037C00040EA0100386038684FF6F87120F48070E4
:1037D0003860B869EA6920EA01004FF0807140EA78
:1037E000C200B861386808BF4FF4000140F480702F
:1037F000002C386008BF4FF48001386808433860F7
:1038000057F82C0C40F0805047F82C0CFEF7FCF8D1
:10381000044600BF57F82C0C800007D4FEF7F4F8DC
:10382000001B0328F6D3032001B0F0BD002001B037
:10383000F0BD0000000000000000000000000000DB
:10384000074B19680868B0E8F04F80F30988BFF3A8
:103850006F8F4FF0000080F31188704700BF00BFEA
:10386000FC0500240000000040F2882440F280376C
:10387000C2F20044C2F200475A222046394600F004
:1038800083FC04F1300545222846394600F07CFCD3
:1038900004F1600661223046394600F075FC40F2C2
:1038A00010070121C2F20047384600F0D1FA07F1B3
:1038B0002C00042100F0CCFA07F15800032100F09D
:1038C000C7FA00F009FB002710E000BF6421204682
:1038D00000F0A6FB00212846002700F0A1FB0021F4
:1038E000304600F09DFB012000F07AFC00F020FA49
:1038F000092FEBD20137F6E7012000F071FCFBE75E
:1039000080B54EF21000CEF20000006802F018FA06
:10391000012808BF80BDBDE8804001F0A1BF0000C4
:10392000B0B59CB044F6180409A84C21C5F60204B1
:10393000FCF7C5FD02200025CDE90755CDE9055569
:10394000CDE90355CDE90155FEF7BAF90095206898
:1039500020F440402060206800F44040009000982F
:103960002068800409D4206880045CBF20685FEA76
:10397000804002D420688004F2D5012009904FF4E1
:1039800080310A9102212822CDE9152004201491CA
:10399000CDE917010C20199009A80024CDE91211D6
:1039A000CDE91A44FFF70CF910B172B6FEE700BF7B
:1039B0003F20019003204FF48061CDE902040820EC
:1039C00004904020CDE90500CDE9071001A80321AE
:1039D000FEF7DEFE10B172B6FEE700BF1CB0B0BD50
:1039E0004EF6885042F2000CCEF20000C5F2002CD8
:1039F000026842F470020260DCF8000000F00F0080
:103A0000062806D8DCF80000072262F30300CCF891
:103A1000000044F200404EF67F51C5F60200CEF69B
:103A2000F621026842F0010202600022026103688E
:103A300019400160DCF80010090706D5DCF8001019
:103A4000072363F30301CCF8001040F200218261E8
:103A5000C261C0F20221026281620021C0F2FF1144
:103A6000C16240F28021C0F20111016342638163AF
:103A7000C26301644264016821F48021016002662E
:103A8000D0F8D410C90448BF7047D0F8D41043F21E
:103A9000D20241F48051C0F8D41044F20001C5F2C2
:103AA00000210A60D0F8D41021F48051C0F8D4105D
:103AB000704700000000000040F2C040C2F2004029
:103AC000FFF7CABB0000000010B540F6FF32D0F887
:103AD00000E0C4F20002904210DCB0F1804F1ED032
:103AE00040F20043C4F20003984218D040F60003AD
:103AF000C4F20003984212D016E000BF40F6004323
:103B0000C4F2000398420AD040F20043C4F2010319
:103B1000984204D00023C4F20103984204D12EF04D
:103B200070024B6843EA020E4EF2FF3343F6FF7C0D
:103B3000C4F20003C4F2010C984213DD60452BDC93
:103B40004EF20043C4F20003984242D00023C4F274
:103B5000010398423DD040F20043C4F20103984271
:103B600037D03BE040F2FF73C4F20003984227DDF8
:103B700040F60003C4F2000398422AD040F6004306
:103B8000C4F20003984224D04EF20003C4F20003B2
:103B900098421ED022E000BF44F20003C4F20103A9
:103BA000984216D044F60003C4F20103984210D0A4
:103BB00044F20043C4F2010398420AD00EE000BF71
:103BC000B0F1804F05D040F20043C4F200039842A8
:103BD00004D12EF44072CB6843EA020E4B69604573
:103BE0000A688C68C462826212DD44F20002C4F288
:103BF0000102904217D044F60002C4F20102904242
:103C000011D044F20042C4F2010290420BD00CE009
:103C10000022C4F20102904205D040F20042C4F2F8
:103C20000102904201D109690163016841F0040178
:103C30000160012141612EF080011943016010BD36
:103C4000FEE7000000000000B0F5017F98BF70475C
:103C500010B540F21002A0F50170C2F20042144605
:103C60001368834209D0144654F82C3F834204D091
:103C700052F8583F1446834250D188799FED291A53
:103C800020770A8810BA000C2081D2BA4B881BBA60
:103C90001B0CA3828988CBBA00EE103A09BA090C32
:103CA000E182B8EEC00A94F82A1080EE010A01EE13
:103CB000102A84ED060A9FED1C0AB8EEC11A21EE07
:103CC000001A84ED031AD9B102B2B4F92810511ABE
:103CD0000A4611F5805FB8BF02F50052B1F5805F6A
:103CE000C8BFA1F5005294ED042A208501EE102AE8
:103CF000B8EEC11AA1EE002A84ED042A06E000BF46
:103D0000208500202061012084F82A00FDF77CFE38
:103D1000206201206077606A01306062BDE8104077
:103D2000704700BF00409C440000343D000000008C
:103D300070B540F23426C2F200463078012840F0D7
:103D4000808040F22040C2F2004000F0A5F8B6F9B1
:103D500002C049F65861B6F90630CFF6FF718C45BE
:103D600046F2A815D8BF8C468B42B6F90A20D8BFB8
:103D70000B46B6F90E008A423479D8BF0A4688420B
:103D8000C8BF0146AC45A8BFAC46307A002C08BF7E
:103D9000A446AB42A8BF2B46347B002808BF03468D
:103DA00040F20420AA42A8BF2A46367CC2F2004054
:103DB000002C08BF2246A942A8BF294640F2FF15A1
:103DC00045604FEA1C2580F82850002E80F829C055
:103DD0004FEA132580F82A5008BF314680F82B306F
:103DE000130A80F82C3080F82D200A0A80F82E2043
:103DF00080F82F1000F068F8FDF706FE40F2100181
:103E0000C2F200410A6832B10A6A22B1821A652AF6
:103E100024BF00224A77CA6A3AB1CA6C2AB1821A10
:103E2000652A24BF002281F849208A6D002A08BF34
:103E300070BD8A6F2AB1801A652824BF002081F8DE
:103E4000750070BD00000000FFF7FEBE000000001E
:103E5000A1F109024FF0000C12F1080F06D24FF049
:103E6000FF320021C0E90012704700BF80B54A1E32
:103E700040F2342EC2F2004E0EEB8203A3F802C0D1
:103E80004FF0010C83F804C08EF800C0BDE88040FC
:103E9000C0E9001270470000002808BF70470168A1
:103EA000096D890100D4704710B50446FDF7CCFABE
:103EB00020684FF0007101652046BDE81040FDF715
:103EC000A7BA0000000000000246011D52F8280BAE
:103ED000FCF70ABC00000000B0B58AB040F2D4156F
:103EE00040F28030C2F20045C2F2004000214FF0A3
:103EF000804269600823C5E90221C5E90431C5E9AA
:103F00000611C5E90811C5E90A11CDE90221CDE97B
:103F1000061102A928600222CDE90422FCF760FC08
:103F200008B1FCF76DFB40F280300221C2F2004084
:103F30000222012301240094FCF79AFC08B1FCF74B
:103F40005FFB40F280301021C2F200400222FCF7F9
:103F5000ABFC08B1FCF754FB40F280301021C2F2F8
:103F600000400022FCF778FB08B1FCF749FB40F267
:103F70008030C2F20040FDF74BFA08B1FCF740FB7D
:103F800040F2204040F2FF11C2F20040696300217C
:103F90000822C5E90E11C5E91021C5E91211C5E9CC
:103FA0001411C5E91611CDE9021101240791CDE9DB
:103FB000054102A9286302220492FCF711FC08B112
:103FC000FCF71EFB40F220400221C2F20040022218
:103FD00001230094FCF74CFC08B1FCF711FB40F204
:103FE00020400121C2F200400122FCF75DFC08B133
:103FF000FCF706FB40F220400121C2F20040002203
:10400000FCF72AFB08B1FCF7FBFA40F22040C2F2B1
:104010000040FDF7FDF908B1FCF7F2FA0AB0B0BDB7
:1040200040F280330268C2F200439A4218BF7047E0
:1040300040F2D41290F804C0C2F2004208204FF0BF
:10404000804310610CF580705060080E82F82800E3
:10405000080C82F82900080A82F82A0010469360AA
:104060000023D3605362C2E90733C2E9053382F803
:104070002B10D362FFF728BF29B18A68B2F1804FB5
:1040800001D1CA6802B170470A69082AFBD30268E5
:10409000002AF8D04A6890F804C0D3B26345F2D140
:1040A000C2F30722102A2BD0092A18BF7047CA6A08
:1040B000B2EE0C1A12BA00EE102AB8EEC00A80ED69
:1040C000020A80EE010AB2EE041A80ED030A0A8E9B
:1040D000D2BA00EE102AB8EEC00A80EE010A9FEDB7
:1040E000291A80ED050A498EC9BA00EE101AB8EEF9
:1040F000C00A80EE010A80ED040A80ED0A0A7047CA
:1041000090ED061A80ED071A498E9FED1A2AC9BA5A
:1041100000EE101A90F82C10B8EEC00A012980EEBB
:10412000020A80ED060A30EE411A09D19FED122AEB
:10413000B4EE421AF1EE10FA02DA016A01310AE035
:104140000029016A08D09FED0D2AB4EE421AF1EE63
:1041500010FA01DD0139016201EE101A9FED082A03
:10416000012180F82C10B8EEC11AA1EE020A80EDF0
:10417000090A704700004842000034C3000034437D
:104180000000B44300007A44016082807047000060
:1041900084B001200090FDF707FD0020019048F257
:1041A0001F70029040F2011003906846FDF7CCFCAE
:1041B0000420FDF709FDFDF73FFCFFF7B1FBFFF71A
:1041C000B7F9FFF71DF9FFF757F900F029F8FFF7E6
:1041D0008FF900F04DF800BFFEE70000000000007E
:1041E000EFF3058100291CBF6FF00500704710B583
:1041F000044601F0A5FD01462046012904D108B17D
:1042000001F052F8002010BDEFF3108119B9EFF35F
:1042100011810029F3D06FF0050010BD00000000EF
:10422000EFF3058000281CBF6FF00500704780B5D4
:1042300001F086FD012811D101F082FD01284FF027
:10424000FF3009D140F28421C2F200410A68002AFD
:1042500002BF01200860002080BD00BFEFF3108086
:1042600018B9EFF311800028E6D06FF0050080BD8B
:10427000EFF3058000281CBF6FF00500704780B584
:1042800001F05EFD012819D101F05AFD01284FF01F
:10429000FF3012D140F28421C2F200410A68012AA3
:1042A00018BF80BD4EF61F500022CEF200000270F3
:1042B0000220086001F004F9002080BDEFF31080B7
:1042C00018B9EFF311800028DED06FF0050080BD33
:1042D0002DE9F04385B000240494EFF305831BB16E
:1042E000204605B0BDE8F083154604460E4601F0B1
:1042F00027FD012808D12046B446BCB90024204639
:1043000005B0BDE8F08300BFEFF3108020B10024BA
:10431000204605B0BDE8F0832046002C4FF0000495
:10432000EFF31181DCD00029B446D9D14FF000045D
:1043300035B3AB69002B08BF1823382BD0D82979A7
:10434000C907CDD16F69BA08002FD5E90289964611
:1043500008BF4FF0800EB8F1000F296824D0B9F1E2
:104360005C0FBDD32E69002E18BF002FB8D08DE88A
:104370004801634601F098FC05B0BDE8F08300BF3A
:104380004FF0800E182300211FFA8EF204AFCDE902
:104390000037334601F058FC0499012808BF0C4649
:1043A000204605B0BDE8F083B9F1000F98D12A6925
:1043B000002A95D1E8E700002DE9F04381B00446DA
:1043C00000F0BAFD40F2001640F2FC58C2F200467E
:1043D000C2F2004840F20065B068C2F20045013008
:1043E000B060D8F8000068B1F068002840F00A8199
:1043F000D8F80000E16AC06A884298BFC8F8004057
:1044000000E100BFC8F80040B068012840F0FA8021
:10441000284600F041FD05F1140000F03DFD05F1D6
:10442000280000F039FD05F13C0000F035FD05F1F4
:10443000500000F031FD05F1640000F02DFD05F1A4
:10444000780000F029FD05F18C0000F025FD05F154
:10445000A00000F021FD05F1B40000F01DFD05F104
:10446000C80000F019FD05F1DC0000F015FD05F1B4
:10447000F00000F011FD05F5827000F00DFD05F56E
:104480008C7000F009FD05F5967000F005FD05F54E
:10449000A07000F001FD05F5AA7000F0FDFC05F527
:1044A000B47000F0F9FC05F5BE7000F0F5FC05F500
:1044B000C87000F0F1FC05F5D27000F0EDFC05F5D8
:1044C000DC7000F0E9FC05F5E67000F0E5FC05F5B0
:1044D000F07000F0E1FC05F5FA7000F0DDFC05F588
:1044E000027000F0D9FC05F5077000F0D5FC05F569
:1044F0000C7000F0D1FC05F5117000F0CDFC05F555
:10450000167000F0C9FC05F51B7000F0C5FC05F540
:10451000207000F0C1FC05F5257000F0BDFC05F52C
:104520002A7000F0B9FC05F52F7000F0B5FC05F518
:10453000347000F0B1FC05F5397000F0ADFC05F504
:104540003E7000F0A9FC05F5437000F0A5FC05F5F0
:10455000487000F0A1FC05F54D7000F09DFC05F5DC
:10456000527000F099FC05F5577000F095FC05F5C8
:104570005C7000F091FC05F5617000F08DFC05F5B4
:10458000667000F089FC05F56B7000F085FC05F5A0
:10459000707000F081FC05F5757000F07DFC05F58C
:1045A0007A7000F079FC05F57F7000F075FC05F578
:1045B000826000F071FC05F2244000F06DFC05F50E
:1045C000876000F069FC05F24C4000F065FC40F2A9
:1045D0005829C2F20049484600F05EFC09F1140770
:1045E000384600F059FC06F14C0000F055FC06F18D
:1045F000380000F051FC06F1600000F04DFCC6F8F8
:104600001890F7613068271D316A421CE06A3260F9
:104610008842626488BF306200EB800005EB800155
:1046200061614A68A2609368E36097605F6055F8D3
:104630002010013145F8201000F0A6FCF06880B190
:10464000D8F80000E16AC06A88420AD24EF60450E7
:104650004FF08051CEF200000160BFF34F8FBFF3E7
:104660006F8F01B0BDE8F08340F2001540F20066A4
:104670004EF60458C2F20045C2F20046CEF20008DF
:104680004FF0805703E000BF204600F095FC6868BB
:10469000D0B100F051FC686CC468201D00F0C8FB6C
:1046A000A8680138A86068680138686000F06CFC90
:1046B00094F859000228EAD00128E5D070B9206B9F
:1046C00000F07AFCE0E700BF30680228DFD3C8F8CA
:1046D0000070BFF34F8FBFF36F8FD8E74FF05000DC
:1046E00080F31188BFF36F8FBFF34F8FFEE7000099
:1046F0002DE9F04381B00A9C16460F468146206B97
:104700009100A5229846089DFBF7AFFE002F206B75
:1047100041D0397884F83410D1B3797884F83510E1
:10472000B1B3B97884F8361091B3F97884F83710BA
:1047300071B3397984F8381051B3797984F8391024
:1047400031B3B97984F83A1011B3F97984F83B1090
:10475000F1B1397A84F83C10D1B1797A84F83D10FE
:10476000B1B1B97A84F83E1091B1F97A84F83F106A
:1047700071B1397B84F8401051B1797B84F84110D4
:1047800031B1B97B84F8421011B1F97B84F8431040
:10479000002184F84310382D0AD34FF0500080F3E5
:1047A0001188BFF36F8FBFF34F8F00BFFEE700BFCD
:1047B00000EB8600099F0438E56220F00706201D03
:1047C000E56400F075FB04F1180000F071FBC5F121
:1047D0003800A0613046494642462461646200F0D8
:1047E0000FFB002F206018BF3C6001B0BDE8F083D4
:1047F00008480068006880F308884FF0000080F3E4
:10480000148862B661B6BFF34F8FBFF36F8F00DFBE
:1048100000BF000008ED00E081B00020009040F2F1
:104820009400C2F2004000684FF0500181F31188FB
:10483000BFF36F8FBFF34F8F013003D0FEE700BF90
:10484000009838B9009828B90098002804BF00984B
:104850000028F5D001B0704784B040F27419E846E2
:10486000C2F20049D9F8080006681EB1C068D0F845
:1048700000A001E04FF0000A00F0A6FE01F070FA7F
:10488000D9F81010834688421FD3002EC9F810B003
:1048900060D0DA455ED801F09FFBD9F80800C06807
:1048A000C668371D384600F0C3FA96F8280041075D
:1048B00038D400F0FA0086F8280071E000F0FA0021
:1048C00086F82800316A30468847D9F80800016820
:1048D000B1B3C068C6680568371D384600F0A8FA4D
:1048E00096F828004107E9D5B06944197460401969
:1048F000366108D2316A30468847B06921180444CD
:1049000074603661F6D3D9F80C00394600F0D4FA59
:10491000D8E700BFABEB0A0181423BD3316A304696
:104920008847A246B069366100EB0A0474605C45B2
:10493000F0D9D34509F108002ED25445EED22BE030
:10494000D9F80C10C9F810B0C9E9021001F044FB05
:1049500030E000BF16B1002206E000BFD9F80C001D
:104960000068B0FA80F04209D9F80000AAEB0B0108
:1049700000F066FC01F030FBE0B94EF604504FF059
:104980008051CEF200000160BFF34F8FBFF36F8FF5
:1049900010E000BF09F10C000068394600F08CFA05
:1049A000316A3046884705E009F10C06306839461F
:1049B00000F082FAD9F800000022414600F0D4FF4E
:1049C00000283FF44FAF0098B0F1FF3F06DCDDE96F
:1049D00001200399904700980028EBD4DDF808B037
:1049E000DBF8140018B10BF1040000F021FA01F01B
:1049F000B7F9D9F810108246884208D330E000BFDA
:104A000000F0FA0087F82800396A38468847D9F854
:104A10000800016801B3C068C76805683C1D2046EE
:104A200000F006FA97F828004107E9D5B869461959
:104A30007E6040193F6108D2396A38468847B869B4
:104A4000311806447E603F61F6D3D9F80C00214648
:104A500000F032FAD8E700BFD9F80C10C9E902100B
:104A60000098C9F810A001380828A3D8DFE800F0A2
:104A70000606482C6E0606482C0000BF9BF828103E
:104A8000019ADBF818005F4641F001038BF82830EB
:104A9000831847F8043F5345CBF810B008D9924526
:104AA00009F10806BFF482AF934206D27EE700BF49
:104AB000AAEB02028242FFF477AF4A0728D401F042
:104AC000FA008BF828004FE09BF8280040F0010125
:104AD000019800288BF82810CBF818004AD05044D1
:104AE00009F10C025946504588BF09F1080241F806
:104AF000040FCBF810B0106800F0DEF95AE700BFE1
:104B00009BF8280000F0FE008BF8280052E700BF59
:104B1000019901440BE000BFAAEB010181421DD3C2
:104B2000DBF8201058468847DBF8180021460C189F
:104B3000CBF804405445CBF810B0EDD98A4509F1C3
:104B400008000DD28C42EBD20AE000BF9BF828008F
:104B50008107D7D4584600F02FFA2BE709F10C0053
:104B60000068394600F0A8F9DBF82010584688475D
:104B700020E700BF4FF0500080F31188BFF36F8F24
:104B8000BFF34F8FFEE70000F0B581B0044600F0A0
:104B9000D3F994F94560012E10DB04F1240503E0FC
:104BA000F0B2013E012809D9286838B1284601F041
:104BB0009FF90028F4D000F0CFFBF1E7FF2684F83E
:104BC000456000F0E1F900F0B7F994F94470012F65
:104BD00010DB04F1100503E0F8B2013F012809D908
:104BE000286838B1284601F083F90028F4D000F095
:104BF000B3FBF1E784F8446001B0BDE8F04000F099
:104C0000C3B900000000000070B5044600F0DCFCF1
:104C100040F2B01CC2F2004CDCF8003023B104F1C9
:104C20000802092A28D22DE040F66020C2F2004096
:104C3000C11D10F0070221F00701A0EB010202F5EF
:104C4000705204BF01464FF4705200200A4422F013
:104C50000702A2F10803CCF80030CCE9051042E9C4
:104C60000200581A4860DCF800300B60CCE9010003
:104C700004F10802092A05D314F007000ED0093800
:104C8000824207D9002401F0A7F960075DD12046D0
:104C900070BD00BF24F0070000F11002012A4FF0A0
:104CA00000044EDBDCF8040082424AD8604650F82B
:104CB00014EFDEF8044094422BD2DEF80010B9B1B4
:104CC00075464C68944217D20E68AEB1746894422F
:104CD00016D23068A0B14468944215D205689DB1DF
:104CE0006C68944214D22968AE460029E9D110E0DC
:104CF0000CF114000DE000BF8E46284609E000BF0D
:104D0000B646084605E000BF8646304601E000BFD3
:104D1000AE469E4514D0A11A03681129DEF8004062
:104D200004604FD30EEB0204600719D04FF050001F
:104D300080F31188BFF36F8FBFF34F8FFEE700BF83
:104D4000002401F049F96007A1D04FF0500080F332
:104D50001188BFF36F8FBFF34F8F00BFFEE700BF17
:104D60000CF114006160CEF804200168A1420BD25E
:104D70000868A0420CD20168A14205D208680A4620
:104D8000A042F2D305E000BF0246084601E000BFA2
:104D90000A4655685119A142616802D12944144656
:104DA00051606518854201D0054607E0DCF80050E7
:104DB000A84203D0D0E9005008446060A2422560B8
:104DC00018BF1460DEF8040003F10804DCE90112E6
:104DD000091ACCF80410914240F0004038BFCCF8DA
:104DE00008100021CEE90010DCF80C000130CCF8EE
:104DF0000C0001F0F1F86007A7D148E700000000BF
:104E000044F6190321F0010140F8081C4FF08071AD
:104E100040F8041CA0F14401C0F6000340F80C3C2B
:104E20006FF0020340E909320846704700000000B5
:104E30000169D0E90132D1F804C09A608445536019
:104E400008BF4A60002202610868013808600868EB
:104E5000704700000000000044F66403C2F2004303
:104E6000036044F26460C2F2004008608020106079
:104E7000704700000000000044F6C043C2F2004347
:104E8000036044F6C000C2F2004008604FF4807036
:104E9000106070470000000002464FF0FF3142F8FA
:104EA000081F00214260C0E9032201607047000032
:104EB000002101617047000010B5D1F800C01CF15D
:104EC000010213D000F1080462681368634511D829
:104ED00053681C68644511D85A68146864450FD833
:104EE0005468A64623686345EED90BE00269D2F800
:104EF00004E007E09646224604E000BF9E4601E03B
:104F000096461A46C1F804E0CEF808108A6051604F
:104F1000086101680131016010BD0000000000005F
:104F2000DFF80C00016841F4700101607047000077
:104F300088ED00E0000000004FF0500080F3118881
:104F4000BFF36F8FBFF34F8F40F29400C2F2004067
:104F50000168002901F10101016001D0704700BF23
:104F60004EF60450CEF200000068000608BF7047FD
:104F70004FF0500080F31188BFF36F8FBFF34F8F56
:104F8000FEE700000000000040F29400C2F2004082
:104F9000016839B10139016018BF7047002080F302
:104FA000118870474FF0500080F31188BFF36F8F66
:104FB000BFF34F8FFEE70000B0B5002808BFB0BDBB
:104FC00050F8041C002909D44FF0500080F31188D8
:104FD000BFF36F8FBFF34F8FFEE700BFA0F1080450
:104FE00022684AB14FF0500080F31188BFF36F8FF1
:104FF000BFF34F8FFEE700BF21F0004140F8041CD3
:10500000054600F0E1FA40F2B01C55F8041CC2F26B
:10501000004C0CF11402DCF804000844CCF8040045
:105020001068A0420AD20268A24213D21068A042BD
:1050300004D202680346A242F2D301E013460246BC
:1050400058681D18A5420AD0601890420DD010462D
:1050500013E000BF034658681D18A542F4D101446F
:105060001C46596060189042F1D1DCF80000824281
:1050700003D0D2E9000211446160A342206018BF4E
:105080001C60DCF810000130CCF81000BDE8B04026
:1050900000F0A2BF000000004EF210000021CEF28E
:1050A000000044F6D352C1F262020160816040F216
:1050B0000801C2F200410968A1FB02124FF0FF3162
:1050C00001EB921141600721016070470000000070
:1050D00000286BD0002908BF7047B0B544F61C52B9
:1050E000C2F20042536898426AD0D36898426DD0A9
:1050F0005369984272D0D369984277D0536A9842E4
:1051000000F07C80D36A984200F08080536B984214
:1051100000F08480D36B984200F0888015464FF0F1
:10512000000CD2F800E055F8084F002C144618BFC8
:105130006546BEF1000F08BF154654F8103F002B1E
:10514000134618BF6446002D18BF2C4653F8185F4D
:10515000002D154618BF6346002C18BF234655F88E
:10516000204F002C144618BF6546002B18BF1D4663
:1051700054F8283F002B134618BF6446002D18BF73
:105180002C4653F8305F002D18BF6346002C18BF23
:105190002346002B4CD152F8383F002B134608BF52
:1051A000C3E90010BDE8B040704700BF4FF05000A9
:1051B00080F31188BFF36F8FBFF34F8FFEE700BFFF
:1051C0001346C3E90010BDE8B040704702F1080380
:1051D000C3E90010BDE8B040704700BF02F1100302
:1051E000C3E90010BDE8B040704700BF02F11803EA
:1051F000C3E90010BDE8B040704700BF02F12003D2
:10520000C3E90010BDE8B040704700BF02F12803B9
:10521000C3E90010BDE8B040704700BF02F13003A1
:10522000C3E90010BDE8B040704700BF02F1380389
:10523000C3E90010BDE8B040704700000000000066
:1052400070B515460E460446FFF776FE94F8440006
:10525000FF280DD094F84500FF2810D0FFF794FEEA
:10526000A06BA0B12046BDE87040FFF78DBC00BF29
:10527000002084F8440094F84500FF28EED1002077
:1052800084F84500FFF780FEA06B0028EAD104F106
:10529000240031462A4600F0B7F82046BDE87040A9
:1052A000FFF772BC00000000F0B581B0002839D0D3
:1052B00040F20014C2F20044216949B14FF050009D
:1052C00080F31188BFF36F8FBFF34F8FFEE700BFEE
:1052D000216940F2FC5601312161C2F20046656944
:1052E0000746316804310846FFF7A2FD3068ED1922
:1052F000456009D3E06931680431FFF7DDFD00F056
:105300006BFE68B90EE000BFA06931680431FFF799
:10531000D3FDE06A854238BFE56200F05DFE08B16A
:1053200001B0F0BD4EF604504FF08051CEF20000B7
:105330000160BFF34F8FBFF36F8F01B0F0BD00006E
:1053400040F20011C2F200414A6B026049694160BB
:10535000704700000000000040F200100121C2F27E
:105360000040416270470000F0B581B000B340F2E8
:10537000FC560C46C2F2004631681831FFF79CFD1E
:1053800040F20015C2F200456F6930680430FFF743
:105390004FFD601C16D03068E419446026D3E869DC
:1053A0003168043101B0BDE8F040FFF785BD00BFB2
:1053B0004FF0500080F31188BFF36F8FBFF34F8F12
:1053C000FEE700BF3068316832683368376855F8E7
:1053D000606F6C6884607D61A068C860111D416069
:1053E000181DA060701C286001B0F0BDA86931686C
:1053F0000431FFF761FDE86A844238BFEC6201B016
:10540000F0BD0000000000002DE9F041A0B340F223
:10541000FC571546C2F200478846416840F2001624
:105420003A68C2F20046D1618A683B681A623B68FA
:10543000183353603A6818328A60396888620168A4
:1054400001310160746938680430FFF7F1FCEDB197
:10545000386839683A683B683F6856F8605F746836
:1054600084607E61A068C860111D4160181DA06045
:10547000681C3060BDE8F0814FF0500080F3118867
:10548000BFF36F8FBFF34F8FFEE700BF386814EB99
:105490000804446006D3F06939680431BDE8F0417E
:1054A000FFF70ABDB06939680431FFF705FDF06AFE
:1054B000844228BFBDE8F081F462BDE8F0810000BD
:1054C00070B588B0002005A9CDE9050006A804AA9A
:1054D000FFF7C2FC059E002E48D0069C002C4FD042
:1054E000049D5C20079007985C2853D107985C21A5
:1054F0002046FAF7C2FF2663022084F8590007A865
:1055000000210023CDE9001044F269602BA1C0F610
:1055100000002A460294FFF7EBF82046FEF74CFF06
:1055200040F200140798C2F20044A062B0B100F04B
:10553000F3FD411C38D0012810D14FF0500080F30A
:105540001188BFF36F8FBFF34F8F4FF0FF30E062D2
:105550000120E0600020606100F0A2F846F2BC206B
:10556000C0F60000006808B070BD00BF4FF05000EA
:1055700080F31188BFF36F8FBFF34F8FFEE700BF3B
:105580004FF0500080F31188BFF36F8FBFF34F8F40
:10559000FEE700BF4FF0500080F31188BFF36F8F1C
:1055A000BFF34F8FFEE700BF4FF0500080F311882C
:1055B000BFF36F8FBFF34F8FFEE700BF49444C45E9
:1055C000000000000000000040F20010C2F20040A5
:1055D000016901310161704780B540F2001EC2F2DD
:1055E000004EDEF8101019B10121CEF8241080BD54
:1055F0000021CEF82410DEF8201040F2006CC2F238
:10560000004C01EB81025CF82230002B0CEB820392
:1056100012D05868426803F1080082425A6001D1F2
:10562000DA685A6040F2FC50D268C2F20040026070
:10563000CEF8201080BD00BF283BC9B101EB81022C
:1056400058690CEB8202E8B9012911D01868E8B951
:1056500002290DD053F8140CE0B9032908D053F8EF
:10566000280C04390028A3F15003E6D02833D0E7F2
:105670004FF0500080F31188BFF36F8FBFF34F8F4F
:10568000FEE700BFA2F114030139C2E7A2F128032B
:105690000239BEE7A2F13C030339BAE7000000007B
:1056A000B0B584B04EF200404CF27021CEF2000052
:1056B000C4F20F114B1CD0F800299A420AD14FF0C6
:1056C000500080F31188BFF36F8FBFF34F8F00BF7F
:1056D000FEE700BFD0F800298A4209D14FF0500000
:1056E00080F31188BFF36F8FBFF34F8FFEE700BFCA
:1056F0000021019101788DF80B10FF2101700178D4
:105700008DF803109DF8031011F0500240F2CC11F7
:10571000C2F200410A700BD09DF8032002F0500243
:10572000502A0FD19DF90320B2F1FF3F48DC1FE062
:105730004FF0500080F31188BFF36F8FBFF34F8F8E
:10574000FEE700BF4FF0500080F31188BFF36F8F6A
:10575000BFF34F8FFEE700BF019A013201929DF81F
:10576000032052008DF803209DF90320002A27D53D
:10577000019A013201929DF8032052008DF8032016
:105780009DF90320B2F1FF3F1ADC019A0132019228
:105790009DF8032052008DF803209DF90320B2F1FB
:1057A000FF3FDFBF019A013201929DF80320DFBF66
:1057B00052008DF803209DF90320B2F1FF3FCBDDAD
:1057C000019A0024082A4FF0000206D0019A4FF4F3
:1057D000E063A3EB022202F4E0624A609DF80B1042
:1057E0000170D0F8201941F47F01C0F82019D0F8D9
:1057F000201941F07F41C0F82019FFF74DFC40F21D
:105800009405C2F200452C60FFF78AFB4EF6347017
:10581000CEF20000016841F040410160FEF7E8FF70
:10582000FFF7DAFE039428684FF0500181F31188E6
:10583000BFF36F8FBFF34F8F013003D0FEE700BF80
:10584000039838B9039828B90398002804BF03982F
:105850000028F5D0002004B0B0BD0000000000001A
:1058600080B54FF0500080F31188BFF36F8FBFF306
:105870004F8F00F07DFA30B14EF604504FF080515A
:10588000CEF200000160002080F3118880BD00008E
:1058900070B582B073B118B101B90AB9A1B19AB9A2
:1058A0004FF0500080F31188BFF36F8FBFF34F8F1D
:1058B000FEE700BF4FF0500080F31188BFF36F8FF9
:1058C000BFF34F8FFEE700BF50250195019D502D7E
:1058D00018D1019DA0FB01454FF0010C002983F870
:1058E00046C008BF1A461A60C3E90F01A5B14FF0C0
:1058F000500080F31188BFF36F8FBFF34F8F00BF4D
:10590000FEE700BF4FF0500080F31188BFF36F8FA8
:10591000BFF34F8FFEE700BF069E1C46FFF70CFB50
:10592000D4E90F012268002501FB0023013800FBA8
:105930000120A5636260C4E90230FF2084F84400BE
:1059400084F8450004F11000FFF7A6FA04F12400E2
:10595000FFF7A2FAFFF718FB84F84C60204602B06C
:1059600070BD0000000000002DE9F04F83B00292EE
:1059700090B104461546002948D00E4600F0E0F9E3
:10598000A0B99DB14FF0500080F31188BFF36F8F25
:10599000BFF34F8FFEE700BF4FF0500080F3118838
:1059A000BFF36F8FBFF34F8FFEE700BFFFF7C4FA5F
:1059B000D4F838A0BAF1000F36D0226C52B1D4E935
:1059C0000231114430469942E16001D32168E1601F
:1059D000FAF706FDAAF10100A06354F8100F70B1A8
:1059E000204600F085FA50B14EF604504FF0805139
:1059F000CEF200000160BFF34F8FBFF36F8F012421
:105A0000FFF7C2FA204603B0BDE8F08F206C0028F3
:105A1000B3D04FF0500080F31188BFF36F8FBFF306
:105A20004F8F00BFFEE700BF0298002800F0B4804F
:105A30006846FFF785FCFFF7A7FAFFF7C5FDFFF7FC
:105A40007BFA94F84400FF2802D1002084F8440037
:105A500094F8450004F12408FF2802D1002084F8BE
:105A60004500FFF791FA684602A900F09DF878B169
:105A70002046FFF789F800F0AFFAFFF75DFAA56B53
:105A8000FFF782FA2DBB0024204603B0BDE8F08F5B
:105A9000FFF752FAA56BFFF777FA2DB12046FFF713
:105AA00073F800F099FA14E002994046FFF75CFCA5
:105AB0002046FFF769F800F08FFA50B94EF604500F
:105AC0004FF08051CEF200000160BFF34F8FBFF363
:105AD0006F8FFFF731FAD4F838A0BAF1000F7FF4D6
