:020000040800F2
:10000000C0560024BD030008F9630008A961000878
:10001000F163000851070008F97C000800000000A7
:10002000000000000000000000000000C1660008A1
:10003000990B00080000000001640008416A0008F4
:10004000DB030008DB030008DB030008DB03000818
:10005000DB030008DB030008DB030008DB03000808
:10006000DB030008DB030008DB030008DB030008F8
:1000700059070008DB030008DB030008DB03000866
:10008000DB030008DB030008DB030008DB030008D8
:10009000DB030008D90B0008DB030008DB030008C2
:1000A000DB030008DB030008DB030008DB030008B8
:1000B000DB030008DB030008DB030008DB030008A8
:1000C000DB030008DB030008DB030008DB03000898
:1000D000DB030008DB030008DB030008DB03000888
:1000E000DB030008DB03000800000000DB0300085E
:1000F000DB030008DB030008DB030008DB03000868
:10010000DB030008DB030008DB030008DB03000857
:10011000DB030008816D0008DB030008F96B0008B1
:10012000DB030008DB030008DB030008DB03000837
:10013000DB030008DB030008DB030008DB03000827
:1001400000000000000000000000000000000000AF
:10015000DB030008DB030008DB030008DB03000807
:10016000DB030008DB030008DB030008DB030008F7
:10017000DB030008DB030008DB03000800000000CD
:10018000DB030008DB030008DB030008DB030008D7
:10019000DB030008DB030008DB030008DB030008C7
:1001A000DB030008DB030008DB030008000000009D
:1001B000DB030008DB030008DB030008DB030008A7
:1001C000DB030008DB030008000000000000000063
:1001D0000000000000000000DB0300080000000039
:1001E000000000000000000000000000000000000F
:1001F0000000000000000000DB030008DB03000833
:10020000DB030008DB03000800000000DB0300083C
:10021000DB030008DB030008DB030008DB03000846
:10022000DB03000800000000DB0300080000000002
:10023000DB030008DB03000800000000DB0300080C
:10024000DB030008DB030008DB030008DB03000816
:10025000DB030008DB030008DB030008DB03000806
:10026000DB030008DB030008DB030008DB030008F6
:10027000DB030008DB030008DB03000800000000CC
:10028000DB030008DB030008DB030008DB030008D6
:1002900000000000DB030008DB0300080000000092
:1002A00000000000DB030008DB030008DB0300089C
:1002B000DB030008DB030008DB030008E90B000890
:1002C000DB030008DB030008DB03000800F002F892
:1002D00000F064F814A696E8000CB244B344DA4582
:1002E00001D100F05BF8BAE80F000FA696E83000E5
:1002F000A5EB040504EB0607AAEB0704A7F1010729
:100300004FEA15154FEA3414A4F10104AC4201D3AD
:1003100000F044F813F0010F18BFFB1A43F001037B
:1003200000F001F8DBE7184704B5000024B5000031
:100330000A4410F8014B14F00F0508BF10F8015BD8
:10034000240908BF10F8014B6D1E05D010F8013BC1
:100350006D1E01F8013BF9D1641E03D0641E01F843
:10036000015BFBD19142E4D370470000704700006D
:100370000023002400250026103A28BF78C1FBD8AE
:10038000520728BF30C148BF0B6070471FB50BF044
:1003900040F900F049F91FBD10B510BD00F0A0F9FB
:1003A0001146FFF7F3FF08F0EFFD00F0BEF903B4CC
:1003B000FFF7F2FF03BC00F0C1F900000A488047D4
:1003C0000A4880470A480047FEE7FEE7FEE7FEE7E7
:1003D000FEE7FEE7FEE7FEE7FEE7FEE70548064923
:1003E000064A074B70470000A90B0008216B000864
:1003F000CD020008C0500024C0560024C052002482
:10040000C052002453EA020C00F069802DE9F04B41
:100410004FF00006002B1FBFB3FA83F503FA05F473
:1004200024FA05F65E4012BF1643B2FA82F502FACC
:1004300005F4C5F120051EBF22FA05FC44EA0C04B0
:10044000203556EA044C4FEA144418BF641C4FF0A0
:1004500000084FF00009904271EB030C39D30029DA
:1004600019BFB1FA81F701FA07F6B0FA80F700FA7E
:1004700007F6C7F120071EBF20FA07FC46EA0C0664
:100480002037B6FBF4FCA7EB0507103F07F01F0B66
:10049000CBF120062CFA06F60CFA0BFB44BFB34650
:1004A0000026202FA4BF5E464FF0000B5BEA060C2F
:1004B00008BF4FF0010B19EB0B0948EB0608ABFB2B
:1004C000027C06FB02CC0BFB03CCC01B71EB0C01C6
:1004D000C1E70B46024641464846BDE8F08B13B5DE
:1004E000084318BF4FF0FF300146AFF30080BDE86E
:1004F0001C407047032A40F2308010F0030C00F0DB
:10050000158011F8013BBCF1020F624498BF11F84D
:1005100001CB00F8013B38BF11F8013BA2F1040206
:1005200098BF00F801CB38BF00F8013B11F003037E
:1005300000F09B80083AC0F0088051F8043B083A6C
:1005400051F804CBA0E80810F5E7121D5CBF51F884
:10055000043B40F8043BAFF30080D20724BF11F8FE
:10056000013B11F801CB48BF11F8012B24BF00F863
:10057000013B00F801CB48BF00F8012B704702F0A7
:10058000FF0343EA032242EA024200F024B84FF09C
:1005900000020429C0F0128010F0030C00F01B8050
:1005A000CCF1040CBCF1020F18BF00F8012BA8BF5E
:1005B00020F8022BA1EB0C0100F00DB85FEAC17C22
:1005C00024BF00F8012B00F8012B48BF00F8012BD5
:1005D00070474FF0000200B5134694469646203906
:1005E00022BFA0E80C50A0E80C50B1F12001BFF4EC
:1005F000F7AF090728BFA0E80C5048BF0CC05DF852
:1006000004EB890028BF40F8042B08BF704748BF9F
:1006100020F8022B11F0804F18BF00F8012B704713
:10062000704770477047000008487CB578440090D8
:1006300007487844009C0546019004E02046016884
:1006400008448047241DAC42F8D17CBD1CB2000098
:100650001AB2000010B500F03BF8006810BD10B5EC
:10066000044600F035F8046010BD10B5203AC0F023
:100670000B80B1E81850A0E81850B1E81850A0E875
:100680001850203ABFF4F5AF5FEA027C24BFB1E80E
:100690001850A0E8185044BF18C918C0BDE8104051
:1006A0005FEA827C24BF51F8043B40F8043B08BF5A
:1006B0007047D20728BF31F8023B48BF11F8012B21
:1006C00028BF20F8023B48BF00F8012B704700000C
:1006D0000048704748020024004870474802002440
:1006E0007546FFF7F9FFAE4605006946534620F010
:1006F0000700854618B020B5FFF770FEBDE8204022
:100700004FF000064FF000074FF000084FF0000BCD
:10071000AC46ACE8C009ACE8C009ACE8C009ACE83C
:10072000C00921F007018D46704710B50446AFF3AC
:1007300000802046BDE81040FFF739BE014918206F
:10074000ABBEFEE72600020070470000000000007C
:10075000FEE700000000000040F2D850C2F2004066
:1007600000F03ABE0000000040F20F42D0F800C096
:10077000C4F20202944511DC6F22C4F202029445D5
:1007800022DC3F22C4F20202944539DC1022C4F27A
:10079000020294455AD0282254E000BF40F26F4232
:1007A000C4F2020294451BDC40F23F42C4F2020252
:1007B00094452DDC40F21042C4F20202944545D02B
:1007C00040F228423EE000BF9F22C4F2020294455C
:1007D00028DC7022C4F20202944537D0882231E02E
:1007E00040F29F42C4F20202944523DC40F2704280
:1007F000C4F20202944529D040F2884222E000BFB0
:100800004022C4F20202944520D058221AE000BFD0
:1008100040F24042C4F20202944517D040F25842DE
:1008200010E000BFA022C4F2020294450ED0B8220C
:1008300008E000BF40F2B842C4F20202944505D07D
:1008400040F2A042C4F20202944517D10CF0F80223
:100850004AF6AB23103ACAF6AA23A2FB03310AA335
:100860005F2AC1F302115B5C40F2FF312CEA010107
:10087000C36588BF04318165084670472CF0FF01CD
:1008800081650846704700BF000610160006101666
:1008900070B540F26F44D0F800C0C4F20204D0F842
:1008A00058E0A4451ADC9F25C4F20205AC4533DCB0
:1008B0005725C4F20205AC455ADC1025C4F20205E6
:1008C000AC4500F098802825C4F20205AC4500F044
:1008D00092804025C4F202058AE000BF45F22F4510
:1008E000C5F60205AC452DDC40F2B745C4F2020561
:1008F000AC454BDC40F27045C4F20205AC457AD001
:1009000040F28845C4F20205AC4574D040F2A045DF
:10091000C4F202056CE000BF40F22745C4F20205B4
:10092000AC4543DCA025C4F20205AC4563D0B82534
:10093000C4F20205AC455ED040F21045C4F2020597
:1009400056E000BF45F26B45C5F60205AC453FDCFD
:1009500045F23045C5F60205AC454CD045F244455C
:10096000C5F60205AC4546D045F258453EE000BF0D
:100970005825C4F20205AC453DD07025C4F20205ED
:10098000AC4538D08825C4F2020531E040F2B845C4
:10099000C4F20205AC452ED045F20845C5F6020565
:1009A000AC4528D045F21C4520E000BF40F2284568
:1009B000C4F20205AC451ED040F24045C4F2020527
:1009C000AC4518D040F25845C4F2020510E000BF13
:1009D00045F26C45C5F60205AC450CD045F2944590
:1009E000C5F60205AC4506D045F28045C5F60205C0
:1009F000AC4540F0D080456EC66E002E866E6E60AF
:100A00001CBFD0E91C566E60A44515DC9F24C4F2BF
:100A10000204A4452CDC5724C4F20204A44551DC92
:100A20001024C4F20204A4457AD02824C4F202049B
:100A3000A44575D040246FE045F22F44C5F602046A
:100A4000A44529DC40F2B744C4F20204A44545DCC5
:100A500040F27044C4F20204A44561D040F28844DC
:100A6000C4F20204A4455BD040F2A04454E000BFAD
:100A700040F22744C4F20204A4453FDCA024C4F29F
:100A80000204A4454CD0B824C4F20204A44547D0C3
:100A900040F2104440E000BF45F26B44C5F602044A
:100AA000A44555DC45F23044C5F60204A44561D0A6
:100AB00045F24444C5F60204A4455BD045F25844CF
:100AC00054E000BF5824C4F20204A44528D0702486
:100AD000C4F20204A44523D088241DE040F2B844A7
:100AE000C4F20204A4451BD045F20844C5F6020432
:100AF000A4453FD045F21C4438E000BF40F22844F2
:100B0000C4F20204A4450BD040F24044C4F20204F3
:100B1000A44505D040F25844C4F20204A4453AD199
:100B20008468C06D00F01F003F2505FA00F0CEF884
:100B30000800DCF80000402C20F48020CCF80000F5
:100B4000CCF8043023D1CCF80820CCF80C1070BDC0
:100B500045F26C44C5F60204A4450BD045F280442E
:100B6000C5F60204A44505D045F29444C5F6020436
:100B7000A44510D1C46D012504F01F04806805FA56
:100B800004F4CEF804404028CCF80430DBD0CCF894
:100B90000810CCF80C2070BD704700000000000069
:100BA00072B600BFFEE7000044F60400C5F602007E
:100BB000816841F0020181600168890409D40168FB
:100BC00089045CBF01685FEA814102D4016889043D
:100BD000F2D570470000000040F25060C2F20040C1
:100BE00001F08ABF0000000040F2F060C2F2004055
:100BF00001F082BF000000002DE9F041044602F040
:100C000007FF3CB3054694F83500022826D1276833
:100C100040F20F46C4F2020640F26F483868B7420D
:100C200020F0010038606FF00E00C4F202081DDCF5
:100C30006F21C4F202018F422ADC3F21C4F202017B
:100C40008F4241DC1021C4F202018F4263D028217F
:100C50005CE000BF0120BDE8F08100BF802060653E
:100C60000120002184F83410BDE8F08147451BDCE9
:100C700040F23F41C4F202018F422DDC40F21041AC
:100C8000C4F202018F4246D040F228413EE000BF4C
:100C90009F21C4F202018F4228DC7021C4F20201BC
:100CA0008F4238D0882131E040F29F41C4F20201E6
:100CB0008F4223DC40F27041C4F202018F422AD0FD
:100CC00040F2884122E000BF4021C4F202018F427D
:100CD00021D058211AE000BF40F24041C4F2020185
:100CE0008F4218D040F2584110E000BFA021C4F25A
:100CF00002018F420FD0B82108E000BF40F2B84196
:100D0000C4F202018F4206D040F2A041C4F20201B7
:100D10008F42394607D13946386820F01E0041F825
:100D2000140B6FF080000A68474500EA0200086073
:100D30001ADC9F20C4F20200874233DC5720C4F241
:100D4000020087425ADC1020C4F20200874200F001
:100D500097802820C4F20200874200F09180402052
:100D6000C4F202008AE000BF45F22F40C5F602003F
:100D700087422DDC40F2B740C4F2020087424BDCD0
:100D800040F27040C4F20200874279D040F28840BD
:100D9000C4F20200874273D040F2A040C4F20200C5
:100DA0006CE000BF40F22740C4F20200874243DCFF
:100DB000A020C4F20200874262D0B820C4F2020030
:100DC00087425DD040F21040C4F2020056E000BFFE
:100DD00045F26B40C5F6020087423FDC45F23040E9
:100DE000C5F6020087424BD045F24440C5F60200EA
:100DF000874245D045F258403EE000BF5820C4F23B
:100E0000020087423CD07020C4F20200874237D0F3
:100E10008820C4F2020031E040F2B840C4F202007F
:100E200087422DD045F20840C5F60200874227D000
:100E300045F21C4020E000BF40F22840C4F202000E
:100E400087421DD040F24040C4F20200874217D0D2
:100E500040F25840C4F2020010E000BF45F26C407E
:100E6000C5F6020087420BD045F29440C5F6020059
:100E7000874205D045F28040C5F60200874205D181
:100E8000206E016821F48071016000BF3868C007DE
:100E900010D002F0BDFD401B0628F7D3202060656E
:100EA000032084F835000120002184F83410BDE8C7
:100EB000F08100BF20680821B0424FF03F0211DCF2
:100EC0006F23C4F2020398421EDC3F23C4F20203E4
:100ED000984235DC1023C4F20203984257D02823ED
:100EE00050E000BF40451BDC40F23F43C4F2020328
:100EF00098422DDC40F21043C4F20203984246D0DF
:100F000040F228433EE000BF9F23C4F20203984210
:100F100028DC7023C4F20203984238D0882331E0E1
:100F200040F29F43C4F20203984223DC40F2704334
:100F3000C4F2020398422AD040F2884322E000BF64
:100F40004023C4F20203984221D058231AE000BF84
:100F500040F24043C4F20203984218D040F2584392
:100F600010E000BFA023C4F2020398420FD0B823C0
:100F700008E000BF40F2A043C4F20203984206D04A
:100F800040F2B843C4F20203984240F0C580D4E96D
:100F9000163707F01F07404502FA07F25A5019DCCE
:100FA0009F21C4F20201884232DC5721C4F20201BF
:100FB000884259DC1021C4F20201884200F0968078
:100FC0002821C4F20201884200F090804021C4F23E
:100FD000020189E045F22F41C5F6020188422DDC6D
:100FE00040F2B741C4F2020188424BDC40F270414A
:100FF000C4F20201884279D040F28841C4F2020171
:10100000884273D040F2A041C4F202016CE000BFFC
:1010100040F22741C4F20201884243DCA021C4F21D
:101020000201884262D0B821C4F2020188425DD038
:1010300040F21041C4F2020156E000BF45F26B419C
:10104000C5F6020188423FDC45F23041C5F6020197
:1010500088424BD045F24441C5F60201884245D052
:1010600045F258413EE000BF5821C4F202018842D7
:101070003CD07021C4F20201884237D08821C4F2EA
:10108000020131E040F2B841C4F2020188422DD0A1
:1010900045F20841C5F60201884227D045F21C41BD
:1010A00020E000BF40F22841C4F2020188421DD076
:1010B00040F24041C4F20201884217D040F2584148
:1010C000C4F2020110E000BF45F26C41C5F6020116
:1010D00088420BD045F29441C5F60201884205D002
:1010E00045F28041C5F6020188420BD1616EA26EC5
:1010F000E06E4A6030B1016821F480710160D4E98A
:101100001C014160012084F835000020002184F892
:101110003410BDE8F08100BF0421012237E7000050
:10112000F0B190F83510022918D180B540F20F4285
:101130000168C4F20202914214DC6F23C4F202037C
:10114000994225DC3F23C4F2020399423CDC102380
:10115000C4F2020399425DD0282357E08021416503
:101160000120704740F26F43C4F2020399421BDC36
:1011700040F23F43C4F2020399422DDC40F2104397
:10118000C4F20203994245D040F228433EE000BF3A
:101190009F23C4F20203994228DC7023C4F20203A5
:1011A000994237D0882331E040F29F43C4F20203D2
:1011B000994223DC40F27043C4F20203994229D0E1
:1011C00040F2884322E000BF4023C4F20203994268
:1011D00020D058231AE000BF40F24043C4F202037B
:1011E000994217D040F2584310E000BFA023C4F248
:1011F000020399420ED0B82308E000BF40F2B84382
:10120000C4F20203994205D040F2A043C4F20203A3
:10121000994275D191424FF0040280F8352011DCDB
:101220006F20C4F20200814222DC3F20C4F202009F
:10123000814239DC1020C4F20200814259D02820BA
:1012400054E000BF40F26F40C4F2020081421BDC58
:1012500040F23F40C4F2020081422DDC40F21040D7
:10126000C4F20200814244D040F228403EE000BF78
:101270009F20C4F20200814228DC7020C4F20200E8
:10128000814236D0882031E040F29F40C4F2020013
:10129000814223DC40F27040C4F20200814228D037
:1012A00040F2884022E000BF4020C4F202008142A8
:1012B0001FD058201AE000BF40F24040C4F20200A4
:1012C000814216D040F2584010E000BFA020C4F286
:1012D000020081420DD0B82008E000BF40F2B840C3
:1012E000C4F20200814204D040F2A040C4F20200E5
:1012F0008142086820F001000860002080BD00BF26
:101300000A6822F001020A6045F25742C5F602025D
:1013100091420A6822F00E020A600FDC45F22F4269
:10132000C5F60202914219DC45F20842C5F60202F6
:10133000914229D045F21C4222E000BF45F27F4293
:10134000C5F60202914213DC45F25842C5F602028C
:10135000914219D045F26C4212E000BF45F2304292
:10136000C5F6020291420FD045F2444208E000BFA8
:1013700045F29442C5F60202914205D045F2804200
:10138000C5F6020291421AD1D0E9181CD0E916E341
:101390000A6822F480720A6003F01F01012202FA37
:1013A00001F1CEF80410816ECCF80410C16E31B199
:1013B0000A6822F480720A60D0E91C124A60012196
:1013C00080F83510016D0022002980F8342094D077
:1013D0008847002080BD00002DE9F04782B0002141
:1013E000019140F2080148F2B513C2F20041C1F682
:1013F0004E33856D40F26F490A680168C4F20209F4
:101400002E68A2FB032849452A6815DC9F22C4F2F6
:10141000020291422CDC5722C4F20202914251DCBA
:101420001022C4F2020291427BD02822C4F20202AE
:10143000914276D040226FE045F22F43C5F6020379
:10144000994229DC40F2B743C4F20203994245DCD9
:1014500040F27042C4F20202914262D040F28842ED
:10146000C4F2020291425CD040F2A04254E000BFBC
:1014700040F22742C4F2020291423FDCA022C4F2B1
:10148000020291424DD0B822C4F20202914248D0E9
:1014900040F2104240E000BF45F26B43C5F6020344
:1014A000994275DC45F23043C5F60203994200F0DB
:1014B000828045F24443C5F6020399427BD045F24F
:1014C000584373E05822C4F20202914229D070229C
:1014D000C4F20202914224D088221DE040F2B843B7
:1014E000C4F2020399421CD045F20843C5F6020338
:1014F000994260D045F21C4358E000BF40F22842B8
:10150000C4F2020291420CD040F24042C4F2020204
:10151000914206D040F25842C4F20202914240F099
:101520005383C26D082302F01F0240F20F4A93401A
:10153000C4F2020A334200F0DE8051454FF0040449
:1015400012DC6F27C4F20207B9426DDC3F27C4F2F8
:101550000207B94200F39C801027C4F20207B94287
:1015600000F0BD802827B5E0494569DC40F23F47DF
:10157000C4F20207B94200F3938040F21047C4F26C
:101580000207B94200F0AB8040F22847A2E000BF5A
:1015900045F26C43C5F6020399420CD045F28043F4
:1015A000C5F60203994206D045F29443C5F60203FC
:1015B000994240F009830B68C76D07F01F070426A6
:1015C000BE40164218BF13F0040423D10226BE40C9
:1015D000164218BF13F0020442D1FA40120740F13C
:1015E000F38213F0080200F0EF820A6822F00E0284
:1015F0000A60012101FA07F26A60416580F835103E
:10160000C16C00294FF0000280F8342040F0D882ED
:10161000DAE200BF1A046E6034D49A0635D40A6840
:1016200022F004020A6030E09F27C4F20207B942A8
:1016300040DC7027C4F20207B94250D0882749E045
:1016400040F29F47C4F20207B9423BDC40F27047C8
:10165000C4F20207B94242D040F288473AE000BFE4
:101660001A046E6000F1B4829A0600F1B5820A682D
:1016700022F00A020A60012180F83510002180F86A
:101680003410A9E2D90300F1A982016C97E200BFEE
:101690004027C4F20207B94221D058271AE000BF00
:1016A00040F24047C4F20207B94218D040F258470E
:1016B00010E000BFA027C4F20207B9420FD0B8273C
:1016C00008E000BF40F2A047C4F20207B94206D0CA
:1016D00040F2B847C4F20207B94218BF08240F68A5
:1016E000274208D00F6827F004070F60AB60436DF6
:1016F00043F0010343650123934033426FD05145CA
:1017000010DC6F27C4F20207B9421DDC3F27C4F288
:101710000207B94234DC1027C4F20207B94256D09E
:1017200028274FE049451BDC40F23F47C4F202073F
:10173000B9422DDC40F21047C4F20207B94246D04C
:1017400040F228473EE000BF9F27C4F20207B9429B
:1017500028DC7027C4F20207B94238D0882731E06C
:1017600040F29F47C4F20207B94223DC40F27047BF
:10177000C4F20207B9422AD040F2884722E000BFF3
:101780004027C4F20207B94221D058271AE000BF0F
:1017900040F24047C4F20207B94218D040F258471D
:1017A00010E000BFA027C4F20207B9420FD0B8274B
:1017B00008E000BF40F2A047C4F20207B94206D0D9
:1017C00040F2B847C4F20207B94240F00D824F69B7
:1017D0003F0604D5AB60436D43F002034365042329
:1017E000934033426FD0514510DC6F27C4F202079B
:1017F000B9421DDC3F27C4F20207B94234DC10278E
:10180000C4F20207B94256D028274FE049451BDCF5
:1018100040F23F47C4F20207B9422DDC40F21047C4
:10182000C4F20207B94246D040F228473EE000BF6A
:101830009F27C4F20207B94228DC7027C4F20207CE
:10184000B94238D0882731E040F29F47C4F20207FE
:10185000B94223DC40F27047C4F20207B9422AD0F1
:1018600040F2884722E000BF4027C4F20207B94295
:1018700021D058271AE000BF40F24047C4F20207C7
:10188000B94218D040F2584710E000BFA027C4F278
:101890000207B9420FD0B82708E000BF40F2A047C6
:1018A000C4F20207B94206D040F2B847C4F20207B8
:1018B000B94240F0A1810F68BF0704D5AB60436D0A
:1018C00043F004034365102303FA02F2324200F0AE
:1018D000828051454FF0080310DC6F27C4F20207E5
:1018E000B9421DDC3F27C4F20207B94234DC10279D
:1018F000C4F20207B94256D028274FE049451BDC05
:1019000040F23F47C4F20207B9422DDC40F21047D3
:10191000C4F20207B94246D040F228473EE000BF79
:101920009F27C4F20207B94228DC7027C4F20207DD
:10193000B94238D0882731E040F29F47C4F202070D
:10194000B94223DC40F27047C4F20207B9422AD000
:1019500040F2884722E000BF4027C4F20207B942A4
:1019600021D058271AE000BF40F24047C4F20207D6
:10197000B94218D040F2584710E000BFA027C4F287
:101980000207B9420FD0B82708E000BF40F2A047D5
:10199000C4F20207B94206D040F2B847C4F20207C7
:1019A000B94218BF04230F681F4214D0AA600A6806
:1019B00052030A6808D4D20508D40A6822F0080243
:1019C0000A60016C21B906E0110351D4016C11B118
:1019D000044688472046C16D01F01F02202101FA0C
:1019E00002F3334200F0AF8001681027514511DC4B
:1019F0006F26C4F20206B1421EDC3F26C4F2020684
:101A0000B14239DC1026C4F20206B1425BD028266E
:101A100054E000BF49451BDC40F23F46C4F20206D9
:101A2000B14231DC40F21046C4F20206B1424AD063
:101A300040F2284642E000BF9F26C4F20206B142AF
:101A40002CDC7026C4F20206B1423CD0882635E078
:101A500040F29F46C4F20206B14227DC40F27046D3
:101A6000C4F20206B1422ED040F2884626E000BF02
:101A7000816C0029ACD1AEE74026C4F20206B14227
:101A800021D058261AE000BF40F24046C4F20206B8
:101A9000B14218D040F2584610E000BFA026C4F270
:101AA0000206B1420FD0B82608E000BF40F2A046BF
:101AB000C4F20206B14206D040F2B846C4F20206B1
:101AC000B14218BF02270E683E423CD0AB6090F88E
:101AD0003530042B0B681DD123F016030B604B69C6
:101AE00023F080034B61036C0BB9836C1BB10B6853
:101AF00023F008030B603F219140A960012180F889
:101B00003510016D00294FF0000280F8342057D1C4
:101B10005AE000BF5A030A680ED4D2050ED40A68F0
:101B200022F010020A60012180F83510002180F8AF
:101B30003410C16B21B906E0110351D4C16B11B14E
:101B4000044688472046416D00293DD0416DC907B4
:101B500034D0042180F8351001684FEA98220B68D0
:101B600023F001030B60019B0133019393421AD8C8
:101B70000B68DB0717D0019B01330193934212D806
:101B80000B68DB070FD0019B0133019393420AD806
:101B90000B68DB0707D0019B01330193934202D806
:101BA0000B68DB07DFD10968C9074FF0030108BFE5
:101BB000012180F83510002180F83410C16C19B172
:101BC00002B0BDE8F047084702B0BDE8F08700BFAB
:101BD000D90301D4416CF2E7C16BF0E7816CEEE709
:101BE000416C0029ACD1AEE70B680423934033422B
:101BF0007FF4F9AD67E600BF0B6864E60000000003
:101C00002DE9F041044601F003FFFCB140F26F48BA
:101C100005462068C4F2020840451BDC9F21C4F23F
:101C20000201884232DC5721C4F20201884259DCA9
:101C30001021C4F20201884200F083802821C4F2FE
:101C40000201884200F07D80402175E00120BDE85E
:101C5000F08100BF45F22F41C5F60201884229DC20
:101C600040F2B741C4F20201884247DC40F27041C1
:101C7000C4F20201884264D040F28841C4F20201F9
:101C800088425ED040F2A04156E000BF40F22741BA
:101C9000C4F20201884241DCA021C4F20201884260
:101CA0004FD0B821C4F2020188424AD040F210411C
:101CB00042E000BF45F26B41C5F60201884200F3E5
:101CC000D18045F23041C5F60201884200F0DD8046
:101CD00045F24441C5F60201884200F0D68045F243
:101CE0005841CDE05821C4F20201884229D0702128
:101CF000C4F20201884224D088211DE040F2B8419C
:101D0000C4F2020188421CD045F20841C5F6020126
:101D1000884200F0BA8045F21C41B1E040F228410F
:101D2000C4F2020188420CD040F24041C4F20201E8
:101D3000884206D040F25841C4F20201884240F085
:101D40003981022184F83510002184F834100168AB
:101D500021F00101016000BF20680168C9070DD0B2
:101D600001F056FE401B0628F6D3202060650320B4
:101D700084F835000120BDE8F08100BF48F23F0241
:101D800004F108060168CFF61062114065694CCE77
:101D90001143A2691943E3693143266A0D43616A1D
:101DA0002B43042943EA060343EA020303D1D4E99F
:101DB0000B652E4333436568A5F12906292E00F2F1
:101DC0003182DFE816F02B002B002B002B002B00BC
:101DD0002B002F022F022F022F022F022F022F0281
:101DE0002F022F022F022F022F022F022F022F026B
:101DF0002F022B002B002B002B002F022F022F0273
:101E00002F022B002B002F022F022F022F022F0256
:101E10002F022B002B002B002B0000BF43F480135C
:101E200003600429436923F0070341EA030140F0FA
:101E3000DD80D4E90A53002B41EA050100F0D68089
:101E4000B2F5005F00F0B880002A40F0C180022D9A
:101E500000F0C180012D00F0B580002D00F0BB80A6
:101E6000C4E000BF45F26C41C5F6020188420CD0C7
:101E700045F28041C5F60201884206D045F2944100
:101E8000C5F60201884240F0958004F1080E022157
:101E900084F83510002184F834100168A3699EE8A5
:101EA0000450A2F18005E769B5FA85F566696D0908
:101EB000402A4FEA853543EA07026FF3101142EAE0
:101EC000060208BF102541EADC0142EA0E02236A3D
:101ED000294341EAD20141EA131140F80819C0B27E
:101EE000CD2148433C2101EA9020E0652046FEF7E1
:101EF0003BFCE16D012201F01F0102FA01F141609A
:101F00002068404500F381809F21C4F2020188428D
:101F100014DC5721C4F20201884227DC1021C4F2EC
:101F20000201884200F0C7802821C4F202018842E1
:101F300000F0C1804021C4F20201B9E040F2274123
:101F4000C4F20201884221DCA021C4F202018842CD
:101F500000F0B180B821C4F20201884200F0AB80E9
:101F600040F21041C4F20201A2E000BF5821C4F2C5
:101F70000201884200F09F807021C4F20201884271
:101F800000F099808821C4F2020191E040F22841DA
:101F9000C4F20201884200F08E8040F24041C4F257
:101FA0000201884200F0878040F25841C4F20201E9
:101FB0007EE000BF4020D9E6032D17D8DFE805F00A
:101FC0000E0B0E02A3F1C072B2FA82F2520904E0C3
:101FD000032D03D30AD1C3F300623AB140206065F8
:101FE000012084F83500BDE8F08100BF4161204642
:101FF000FEF7BAFBE16D3F2201F01F0102FA01F189
:102000008160206840457FF77FAF45F22F41C5F6DC
:102010000201884216DC40F2B741C4F20201884254
:1020200026DC40F27041C4F20201884243D040F203
:102030008841C4F2020188423DD040F2A041C4F27E
:10204000020135E045F26B41C5F6020188421FDC12
:1020500045F23041C5F6020188422CD045F2444198
:10206000C5F60201884226D045F258411EE000BF65
:1020700040F2B841C4F2020188421CD045F2084146
:10208000C5F60201884216D045F21C410EE000BFA1
:1020900045F26C41C5F6020188420CD045F29441EC
:1020A000C5F60201884206D045F28041C5F602011C
:1020B000884240F0E18045F2574C45F6FC0EC5F6EB
:1020C000020CC5F6020E60450EDC45F22F41C5F646
:1020D0000201884218DC45F20841C5F60201884237
:1020E00028D045F21C4121E045F27F41C5F60201AE
:1020F000884213DC45F25841C5F60201884219D0E6
:1021000045F26C4112E000BF45F23041C5F60201D4
:1021100088420FD045F2444108E000BF45F29441A7
:10212000C5F60201884205D045F28041C5F602019C
:10213000884247D100F0FC014CF6CD420839CCF67C
:10214000CC42A1FB0212AEF1FC05AEF17C061309F4
:10215000A26803F01F01802A4FF0010205EB8305FE
:10216000256602FA01F26666A26605D1002060606B
:10217000286072601EE000BF6368D9B25F1E072F3F
:102180002960726016D84E1E082E19D260450EF1D5
:10219000440237DC45F22F41C5F60201884249DC92
:1021A00045F20841C5F60201884259D045F21C416A
:1021B00052E000BF00206067C4E91B005CE000BF84
:1021C000E06E54E000F0F8014AF6AB221039CAF68E
:1021D000AA22A1FB021240F20F43C4F20203082517
:1021E0001109984203F1AA060B4688BF05EB1213AA
:1021F00040F60005B042C4F2020505F1800628BF92
:102200000B46A5E745F27F41C5F6020188421BDC7B
:1022100045F25841C5F60201884221D045F26C4191
:102220001AE000BF25F00307742F08BF43F48013A2
:10223000F6E500BF45F23041C5F6020188420FD0F5
:1022400045F2444108E000BF45F28041C5F6020175
:10225000884205D045F29441C5F60201884213D167
:102260000EEB83000121E066B14022676167002127
:102270000160D4E91C01416000206065012184F8FF
:102280003510BDE8F08100BF40F60000C4F2020046
:1022900000F1FC0E00F5A072E2E700000000000073
:1022A00030B110B590F83440012C03D1022010BD9C
:1022B00001207047012480F8344090F83540012C0B
:1022C0002CD1022480F8354000244465D0F800C0A9
:1022D000DCF8004024F00104CCF800400446FEF78E
:1022E000D7FA40F20F4C2068C4F2020C40F26F4162
:1022F0006045C4F2020119DC6F23C4F20203984264
:1023000026DC3F23C4F2020398423DDC1023C4F2D2
:10231000020398425FD0282358E000BF4FF40061C9
:102320004165002180F83410012010BD88421BDC7B
:1023300040F23F43C4F2020398422DDC40F21043C6
:10234000C4F20203984246D040F228433EE000BF68
:102350009F23C4F20203984228DC7023C4F20203D4
:10236000984238D0882331E040F29F43C4F2020300
:10237000984223DC40F27043C4F2020398422AD010
:1023800040F2884322E000BF4023C4F20203984297
:1023900021D058231AE000BF40F24043C4F20203A8
:1023A000984218D040F2584310E000BFA023C4F276
:1023B000020398420FD0B82308E000BF40F2B843B0
:1023C000C4F20203984206D040F2A043C4F20203D2
:1023D000984240F02F8103680B2262F344030360AC
:1023E000226C1AB1082302681A430260884219DC81
:1023F0009F22C4F20202904232DC5722C4F202024F
:10240000904259DC1022C4F20202904200F0968001
:102410002822C4F20202904200F090804022C4F2CE
:10242000020289E045F22F42C5F6020290422DDCFD
:1024300040F2B742C4F2020290424BDC40F27042DA
:10244000C4F20202904279D040F28842C4F2020201
:10245000904273D040F2A042C4F202026CE000BF8E
:1024600040F22742C4F20202904243DCA022C4F2AE
:102470000202904262D0B822C4F2020290425DD0C1
:1024800040F21042C4F2020256E000BF45F26B4235
:10249000C5F6020290423FDC45F23042C5F6020228
:1024A00090424BD045F24442C5F60202904245D0DC
:1024B00045F258423EE000BF5822C4F20202904268
:1024C0003CD07022C4F20202904237D08822C4F27B
:1024D000020231E040F2B842C4F2020290422DD032
:1024E00045F20842C5F60202904227D045F21C424E
:1024F00020E000BF40F22842C4F2020290421DD008
:1025000040F24042C4F20202904217D040F25842D8
:10251000C4F2020210E000BF45F26C42C5F60202AE
:1025200090420BD045F29442C5F60202904205D08B
:1025300045F28042C5F60202904274D1236E1A68B9
:10254000D20303D51A6842F480721A60E36E1BB19D
:102550001A6842F480721A60604511DC6F21C4F27F
:10256000020188421EDC3F21C4F20201884235DCB0
:102570001021C4F20201884255D0282150E000BF4A
:1025800088421BDC40F23F41C4F2020188422DDC4C
:1025900040F21041C4F20201884244D040F2284186
:1025A0003EE000BF9F21C4F20201884228DC702176
:1025B000C4F20201884236D0882131E040F29F41C6
:1025C000C4F20201884223DC40F27041C4F20201ED
:1025D000884228D040F2884122E000BF4021C4F266
:1025E000020188421FD058211AE000BF40F240414A
:1025F000C4F20201884216D040F2584110E000BFF8
:10260000A021C4F2020188420DD0B82108E000BF29
:1026100040F2B841C4F20201884204D040F2A04125
:10262000C4F202018842016841F00101016000200A
:1026300010BD00BF0268052363F343020260226CF1
:10264000002A3FF4D3AE0423CDE6000000000000D2
:1026500090F89830013B012B0ED80068836D0B4237
:1026600012D0836D0B408B4232D1C36D43F0020315
:10267000C3658B050ED412E000F19C0101200222FB
:102680000B681A430A607047C36D43F00103C365CA
:102690008B0504D5D0F8E0301343C0F8E0304B058B
:1026A00004D5D0F8E4301A43C0F8E4204FF6FF72A6
:1026B000436DC3F6CF720A401A4342658A0F4AF649
:1026C00014010020C4F200010B681A430A6070472D
:1026D0000323C3658B05DDD4E1E7000000000000A3
:1026E00090F89830022B1BD12DE9F0430668D6F8FC
:1026F000C03013F07C5F1BD0D6F8C4309B0221D4CD
:10270000D6F8C4300C69C3F3044CD1E90035002D70
:102710008D6821D023432B4343F0804E20E000BF3F
:10272000D0F89C1041F00801C0F89C1001207047BF
:10273000D0F89C1041F02001C0F89C100120BDE8A9
:10274000F08300BFD0F89C1041F40071C0F89C10D9
:102750000120BDE8F08300BF44EA834343EA050E4D
:10276000836ED0F88450D1E907970CFB03F48B6992
:1027700049EA0767D1F81480D1F80C901F4305EBA4
:10278000840347EA080745F824E047EA09475F6001
:10279000CF6887B14BF2C475083303320024C0F60A
:1027A000000500BF171957F8037C1F51CF68043488
:1027B000EF5DBC42F6D3012101FA0CF1C6F8D0104E
:1027C000C0F894100020BDE8F08300000000000075
:1027D000704700000000000090F89820013A012A9C
:1027E0000CD880B50A68002ACA680FD00B69072A7E
:1027F00043EA427E18D18B691BE000BFD0F89C10E1
:1028000041F00201C0F89C1001207047072A19D13D
:102810000A69D1E906C3120442EA032242EA0C0221
:1028200042F0605218E000BFD1F808C04B6943EA9B
:102830008C73006F496800EBC10240F831E05360CF
:10284000002080BD8B68D1E904CE9B0743EAC262B9
:1028500042EA0C4242EA0E024968C06E40F821206A
:10286000002080BD0000000090F898C0BCF1010F6E
:102870000ED19200006842EA0111DDF800C041EA81
:10288000430141EA0C01C0F880100020704700BFEE
:10289000D0F89C1041F00401C0F89C100120704752
:1028A00090F89830013B012B08D8012A0ED100681E
:1028B000826D22EA0101816500207047D0F89C10EA
:1028C00041F00201C0F89C10012070470068826D41
:1028D0001143816500207047704700000000000030
:1028E00070470000000000002DE9F04390F8987058
:1028F000022F17D140291FD10468274657F8A06F2F
:1029000016F4FE0F3AD0D4F8A460760640D0D4F87E
:10291000A460D4F8A450ED01C6F3052E42D444259A
:10292000742656E0D0F89C1041F00801C0F89C10C5
:102930000120BDE8F08300BF412915D10668374664
:1029400057F8B05F15F4FE0F18D0D6F8B4506D06E6
:102950001ED0D6F8B450D6F8B460F601C5F3052EF3
:102960002AD44C25782634E0076DB94206D24FF0C0
:10297000000C54257C268E462CE000BFD0F89C101D
:1029800041F02001C0F89C100120BDE8F08300BF99
:10299000D0F89C1041F48071C0F89C100120BDE873
:1029A000F08300BF3E684425B6F1FF3F4FF0740648
:1029B000F4460FDC08E000BF3E684C25B6F1FF3F4F
:1029C0004FF07806F44605DC0EF101043F6804EA96
:1029D000174EF446445985590EFB04F405EB840E5A
:1029E00055F8247017F08047576055F8247027F089
:1029F000604608BFC7F38A46166055F8247007F092
:102A00000057976055F8244004F000441461BEF864
:102A10000440D461BEF8064014F00F04D460DEF820
:102A2000044004F480145461DEF8044004F40014FB
:102A300094619EF8074004F07F041462DEF80440BD
:102A40004FEAD474546228D04BF2C4780026C0F602
:102A500000080EEB0604751C277A9F55D76818F8F6
:102A60000770BD4219D29F19657A7D70D56818F834
:102A70000590B51C4D453FBFA57ABD70D56818F8C7
:102A800005903CBFF51C4D4507D2E47A0436FC7036
:102A9000D46818F80440A642DBD3402906D1006868
:102AA000C0F8A8C00020BDE8F08300BF412905D1CF
:102AB0000068C0F8B8C00020BDE8F0831F2909D81D
:102AC0000068012202FA01F1C0F898100020BDE868
:102AD000F08300BF006801F01F01012202FA01F13A
:102AE000C0F89C100020BDE8F0830000000000004A
:102AF00070470000000000002DE9F04F87B0044649
:102B00004AF61000C4F2000001684AF61400C4F24C
:102B10000000026820680A40D0F850B0D0F8549005
:102B2000056D466D036D0293436D0193036D06932E
:102B3000436D0593036D0493436D0393D0F854A044
:102B4000D0F850805FEACA5311D518F480710ED0C6
:102B50004FF4807101654AF610010020C4F20001B3
:102B6000174608602046FFF7C3FF3A4620685FEA31
:102B70004A510BEA090B4FEA827740F14B814AF642
:102B8000100918F48061C4F2000910D0D0F8DC10EC
:102B90000092D0F8E42011404FF4806202650020DA
:102BA000C9F80000204600F02FFE009A206805EAD0
:102BB00006050BF4704657B10021016502F00300D1
:102BC000C9F8000020463946FFF702FE2068DDE91B
:102BD000012101EA020705F00F0546B10665002054
:102BE000C9F800002046314600F016FE206807F0C4
:102BF000F00645B105650020C9F8000020462946C9
:102C000000F0B2FB206846B106650020C9F800005C
:102C10002046314600F0D4FB20685FEA0A510CD50B
:102C200018F4006109D04FF4006101650020C9F873
:102C30000000204600F0F4FD20685FEA8A5111D5BB
:102C400018F400710ED0D0F8D810D0F8E020114060
:102C50004FF4007202650020C9F80000204600F021
:102C6000D7FD20685FEA0A310CD518F4002109D09D
:102C70004FF4002101650020C9F80000204600F053
:102C80006FFB20685FEACA310CD518F4803109D097
:102C90004FF4803101650020C9F80000204600F0A3
:102CA000AFFD20685FEA4A31DDE9032101EA020550
:102CB0000CD518F4802109D04FF480210165002043
:102CC000C9F80000204600F097FD20685FEA8A31CD
:102CD000DDE9052102EA010205F060710ED518F464
:102CE00000330BD04FF4003303650023C9F80030E4
:102CF000D4F89C3043F08003C4F89C3002F0715546
:102D000039B101650020C9F800002046FFF7E8FD51
:102D1000206845B105650021C9F80010D4F89C1061
:102D20002943C4F89C10A9F5016188420AD0D4F85F
:102D30009C0000286AD0204607B0BDE8F04FFFF79E
:102D4000CBBD00BF606881688907F0D0016A426A24
:102D5000036A476A114003EA070202F03005D0F81F
:102D60002080D0F82490D0F820B0466A026A0692FB
:102D700011F00F01426A0592D0F824A0026A049271
:102D800003D00162204600F02BFD08EA09072DB1AF
:102D9000606829460562204600F02AFD5FEA4A6025
:102DA00006EA0B0607F4C0750ED5049810F0400033
:102DB0000AD060684023C16BC26B090C02F03F026D
:102DC0000362204600F010FDDDE9051000EA01076E
:102DD00006F4FC462DB1606829460562204600F0E5
:102DE000FBFC07F4F02036B161680E62D4F89C1049
:102DF0003143C4F89C10002899D061680862D4F867
:102E00009C100843C4F89C0091E700BF07B0BDE8E0
:102E1000F08F00BF4AF61009C4F20009002F05EA3E
:102E200006050BF470467FF4C7AED0E60000000044
:102E3000F0B12DE9F04F83B04AF200080446C4F225
:102E400000080068404533D094F89810B9B3816900
:102E500021F01001816100F0DBFD054620688169E9
:102E6000090707D500F0D4FD401B0B28F6D312E06C
:102E700001207047816941F00101816100F0C8FDC6
:102E8000054600BF20688169C90721D100F0C0FD57
:102E9000401B0B28F6D30120D4F89C100843C4F83B
:102EA0009C00032084F89800012003B0BDE8F08F57
:102EB00008F58071616094F898100029C7D100204E
:102EC00084F89900204600F0B3F92068BFE700BFFE
:102ED000816941F002018161217C826922F0400216
:102EE000012918BF40328261617C826922F48042EC
:102EF000012908BF02F580428261A17C826922F427
:102F00008052012918BF02F580528261816921F443
:102F10004073D4E902120B438361836923F0A40355
:102F20008361036923F0100303619AB1012A0DD074
:102F3000022A09D08369032A43F08003836103696D
:102F400043F01002026105D1202200E004228369CF
:102F50001A438261D4E90572E369561E6FF0FF02DD
:102F6000256A02EB0323B1F5407F43EA4663A5F1EE
:102F7000010646EA030640F20003CFF6FF7303EBB7
:102F8000074746EA0701C16110D1D4E90B65D4E9CE
:102F90000917013F02EB06226FF00F063A4306EBDA
:102FA00005173A4303EB01411143C160236E2BB176
:102FB000616ED0F8C0201143C0F8C010E16DCDE9BA
:102FC0000113D9424BF22071C0F6000109D0D0F8AC
:102FD000C820A36E22F0070251F823301A43C0F82C
:102FE000C820D4F840C0BCF1000F09D0D0F8BC20F4
:102FF000636C22F0070251F823301A43C0F8BC205A
:10300000D4F848B0BBF1000F0AD0D0F8BC20E36C74
:1030100022F0700251F8233042EA0312C0F8BC20BB
:10302000D4F850A0BAF1000F0AD0D0F8BC20636DDC
:1030300022F4E06251F8231042EA0121C0F8BC10EA
:10304000404504D161688A6822F003028A60002149
:10305000C4F89410C4F89C10012184F8981004F16D
:103060003409D0F884104FF6FC729143656C99E8EE
:103070000C02009541EA8201C0F88410D0F8841057
:1030800021F47F0141EA0341C0F884109918D0F877
:1030900088306FF38F0343EA8103C0F88830D0F89B
:1030A000883023F4FE0343EA0943C0F8883001EB7B
:1030B0004903D0F8A0606FF38F0646EA8306C0F894
:1030C000A060D0F8A06026F4FE0646EA0C46C0F8E0
:1030D000A06005FB0C36D0F8B0306FF38F0343EAE5
:1030E0008603C0F8B030D0F8B03023F4FE0343EAD2
:1030F0000B43C0F8B030E36CD0F8AC506FF38F05E1
:1031000003FB0B6645EA8605C0F8AC50D4F8548042
:1031100008FB0A65D0F8F0606FF38F0646EA850673
:10312000C0F8F060D0F8F0E0A66D2EF47C1747EA06
:103130000647C0F8F070F70007EB8507D0F8C050DD
:103140006FF38F052F43C0F8C070D0F8C070009D9A
:10315000DDF804E027F47C1705FB0CFC4AF20005BF
:1031600047EA0E47C0F8C070C4F2000503FB0BC36A
:1031700005F54067D0F8C05007EB820207EB8101EC
:1031800025F07C57029D47EA0567C0F8C07001EB47
:10319000C90008FB0A372167A16E00EB8C0C606741
:1031A00000EB8303E266C4E91EC30EFB01F300EBF0
:1031B00087006943C4F8800000EBC600C4F88400AF
:1031C00000EB8300C4F8880000EB81004DF2FC3175
:1031D000C4F20001C4F89000884201D920205BE6C7
:1031E00082421FD21146002041F8040BD4F89030DF
:1031F0009942BFF45AAE506002F10801D4F8903001
:1032000099423FBF906002F10C01D4F8903099428E
:10321000BFF44BAED0601032D4F890108A42E1D3A4
:1032200043E600BF002003B0BDE8F08F00000000BF
:10323000B0B5B6B0044602A8B8210025CDE9345592
:10324000CDE932553195FDF7C4F94DF200412068C2
:10325000C4F20001884237D04AF20001C4F20001F2
:10326000884278D1002003904FF4004002904FF044
:1032700080501D9002A800F08BFE08B1FDF790FC75
:1032800040F2884144F2E040C2F20041C5F602003B
:103290000A68002A02F101020A6008D1C16841F4FB
:1032A0008071C160C16801F4807101910199016868
:1032B000152441F0080101600068032100F00800B6
:1032C00001900198092030E04FF4004002904FF047
:1032D00080501D9002A8039500F05AFE08B1FDF73A
:1032E0005FFC40F2884144F2E040C2F20041C5F682
:1032F00002000A68002A02F101020A6008D1C168CE
:1033000041F48071C160C16801F48071019101993B
:1033100001689F2441F00801016000684FF44051AA
:1033200000F00800019001980520359040F600401B
:103330003191022132910021CDE93311C5F602000D
:1033400031A900F071FA05210022204600F07CFC32
:10335000204600F065FC36B0B0BD00000000000063
:10336000704700000000000070B540F22056402178
:10337000C2F200460546324606F12C04234642F8C6
:10338000040BFFF7B1FA002818BF70BD40F2F060DF
:10339000C2F20040854205D1B068002804BFF06841
:1033A000002801D070BD00BF30690828FAD17068CC
:1033B0002146BDE8704004F08BBD00000000000015
:1033C00070B540F254564121C2F2004605463246DD
:1033D00006F12C04234642F8040BFFF785FA002877
:1033E00018BF70BD40F25060C2F20040854206D165
:1033F000B068B0F1804F04BFF068002800D070BD05
:1034000030690828FBD170682146BDE8704005F09E
:1034100087BC00000000000090F8981001290DD131
:10342000022180F8981001688A6922F001028A61FD
:103430000021C0F89C100020704700BFD0F89C10FD
:1034400041F00401C0F89C1001207047000000000A
:1034500090F89810022927D1016851F8182F42F0EE
:1034600001020A600A68D20704BF0A685FEAC272F2
:1034700022D00A6822F010020A600A68120707D5F3
:103480000A68120744BF0A685FEA027200F1D2803C
:103490000A6842F002020A600021C0F8941001227A
:1034A00080F8982008467047D0F89C1041F0080139
:1034B000C0F89C10012070470A68D20704BF0A6850
:1034C0005FEAC272D5D10A68D20704BF0A685FEA10
:1034D000C272CED10A68D20704BF0A685FEAC2721C
:1034E000C7D10A68D20704BF0A685FEAC272C0D1B6
:1034F0000A68D20704BF0A685FEAC272B9D10A68D3
:10350000D20704BF0A685FEAC272B2D10A68D20762
:1035100004BF0A685FEAC272ABD10A68D20704BF6F
:103520000A685FEAC272A4D10A68D20704BF0A68B7
:103530005FEAC2729DD10A68D20704BF0A685FEAD7
:10354000C27296D10A68D20704BF0A685FEAC272E3
:103550008FD10A68D20704BF0A685FEAC2727FF49B
:1035600088AF0A68D20704BF0A685FEAC2727FF4B4
:1035700080AF0A68D20704BF0A685FEAC2727FF4AC
:1035800078AF0A68D20704BF0A685FEAC2727FF4A4
:1035900070AF0A68D20704BF0A685FEAC2727FF49C
:1035A00068AF0A68D20704BF0A685FEAC2727FF494
:1035B00060AF0A68D20704BF0A685FEAC2727FF48C
:1035C00058AF0A68D20704BF0A685FEAC2727FF484
:1035D00050AF0A68D20704BF0A685FEAC2727FF47C
:1035E00048AF0A68D20704BF0A685FEAC2727FF474
:1035F00040AF0A68D20704BF0A685FEAC2727FF46C
:1036000038AF0A68D20704BF0A685FEAC2727FF463
:1036100030AF0A68D20704BF0A685FEAC2727FF45B
:1036200028AF0A68D20704BF0A685FEAC2727FF453
:1036300020AFC3E00A68120744BF0A685FEA02725B
:103640007FF526AF0A68120744BF0A685FEA027274
:103650007FF51EAF0A68120744BF0A685FEA02726C
:103660007FF516AF0A68120744BF0A685FEA027264
:103670007FF50EAF0A68120744BF0A685FEA02725C
:103680007FF506AF0A68120744BF0A685FEA027254
:103690007FF5FEAE0A68120744BF0A685FEA02724D
:1036A0007FF5F6AE0A68120744BF0A685FEA027245
:1036B0007FF5EEAE0A68120744BF0A685FEA02723D
:1036C0007FF5E6AE0A68120744BF0A685FEA027235
:1036D0007FF5DEAE0A68120744BF0A685FEA02722D
:1036E0007FF5D6AE0A68120744BF0A685FEA027225
:1036F0007FF5CEAE0A68120744BF0A685FEA02721D
:103700007FF5C6AE0A68120744BF0A685FEA027214
:103710007FF5BEAE0A68120744BF0A685FEA02720C
:103720007FF5B6AE0A68120744BF0A685FEA027204
:103730007FF5AEAE0A68120744BF0A685FEA0272FC
:103740007FF5A6AE0A68120744BF0A685FEA0272F4
:103750007FF59EAE0A68120744BF0A685FEA0272EC
:103760007FF596AE0A68120744BF0A685FEA0272E4
:103770007FF58EAE0A68120744BF0A685FEA0272DC
:103780007FF586AE0A68120744BF0A685FEA0272D4
:103790007FF57EAE0A68120744BF0A685FEA0272CC
:1037A0007FF576AE0A68120744BF0A685FEA0272C4
:1037B0007FF56EAE0A6812077FF56AAED0F89C10EE
:1037C00041F00101C0F89C10032180F898100120FD
:1037D000704700000000000070470000000000007B
:1037E000704700000000000070470000000000006B
:1037F000704700000000000070470000000000005B
:10380000704700000000000070470000000000004A
:10381000704700000000000070470000000000003A
:1038200070470000000000002DE9F04F85B00F68E0
:103830000390002F00F0E680039842F2004600F16A
:1038400026428C4602F1FF72C5F602060A21B042FA
:103850004FEAB22600F1200008BF09210090082E8F
:1038600038BF4FEAB221002400264FF00008019132
:10387000CDF808C00CE000BF08F10108DCF80070CA
:1038800037FA08F106F1020604F1040400F0BA80E8
:10389000012000FA08F217EA0209EDD0DCF804A0D2
:1038A00003200AF0030B00FA06F5ABF10107012F24
:1038B00012D803988768DCE902C3AF43B3403B43A7
:1038C0008360CAF30017436823EA020207FA08F389
:1038D0001A43426008E000BFDCF808C0BBF1030FE8
:1038E00008BFBCF1010F2DD003994FEA480EE84301
:1038F0000CFA06F3CA68BBF1020F22EA050242EA9B
:103900000302CA601AD183466FF0030000EA58022E
:10391000009804F01C050F2150F802C001FA05FAC6
:1039200002992CEA0A078C460B69AB403B43835053
:10393000D1F804A058460AF0030B0BE0DDF808C0EC
:1039400008E000BF4FF0030BB6460BFA06F2DDF8B5
:1039500008C0D043039B1AF4403F1A6802EA0001F2
:103960000BFA0EF241EA020119603FF485AF44F20E
:10397000F44040F20845C5F60200C5F600050168AE
:1039800041F00201016001680F2001F00201049181
:1039900028F00301049A04F00C024B5900FA02F7D4
:1039A0000198BB4300FA02F24FF0B0401A434A516B
:1039B0000168DCF8042041EA0903D70258BF21EA74
:1039C00009039702036040F20400C5F60000016895
:1039D00041EA090358BF21EA090397030360D0F8BD
:1039E000801041EA090358BF21EA0903D203C0F855
:1039F0008030C16F41EA090358BF21EA0903C36758
:103A00003AE700BF05B0BDE8F08F000000000000FD
:103A100044F6C410C2F20040006870470000000085
:103A200040F2000044F6C411C2F20040C2F200416C
:103A300000780A6810440860704700000000000029
:103A400080B5032000F030F901F0C2F944F21841CA
:103A50004BF29C73C5F60201C0F600030A68C2F37C
:103A600003229A5C096801F00F0102F01F02595C01
:103A7000D04040F20C02C2F2004201F01F0120FAD5
:103A800001F1116040F20801C2F2004108600F200C
:103A900000F00AF800281CBF012080BD00F0A8F843
:103AA000002080BD000000000F2847D8B0B58AB0C4
:103AB0000446372000222146002500F0C5F83720B3
:103AC00000F0AEF840F20400C2F20040046044F29C
:103AD000E840C5F60200016841F02001016000687D
:103AE00001A900F020000290029802A801F0BCF8A1
:103AF000079C002C18BF012401F00AF94DF68361E0
:103B0000A040C4F21B3141F20042A0FB010140F28F
:103B10009070C2F200404FF0FF33C4F20002026026
:103B200003EB9141C0E9011540F2E731C0E903150B
:103B300001F082FC20B101200AB0B0BD0120704725
:103B400040F29070C2F2004001F0AAFC0AB0B0BD91
:103B500010B54EF6A05E4378CEF2000E90F800C08D
:103B60004EF8083CDEF8003023F00103CEF80030B8
:103B700043684EF8043C037BC27A817A447B120688
:103B800042EA0372837B42EAC141C27B41EA84413B
:103B9000447A41EA4341007A41EA024141EA042180
:103BA00041EA400040EA0C00CEF8000010BD0000E1
:103BB0004EF62450CEF20000BFF35F8F016821F46F
:103BC00080310160002101677047000000000000A3
:103BD0004EF6245140F00100CEF20001086708685B
:103BE00040F480300860BFF34F8FBFF36F8F704792
:103BF00081B044F2F4400022C5F60200016841F0B1
:103C00000201016000680F2100F0020000906FF0D7
:103C10000100009B01B000F017B800000000000098
:103C2000002848BF704700F01F01012202FA01F18D
:103C30004EF20012C0F34A10CEF2000242F82010F9
:103C4000704700000000000070B54EF60C5C4FF0AD
:103C5000FF36CEF2000C00F1604505F56445DCF856
:103C60000030C3F3022E8EF00703042B28BF042379
:103C7000BEF1030406FA03F321EA030100F00F0387
:103C800038BF0024043B0028634406FA04F048BF10
:103C900003F10C05A14022EA00000843000128704E
:103CA00070BD0000000000004EF60C514FF6FF03FF
:103CB000CEF200010A681A4060F30A2242F08060E6
:103CC00040F0FD7008607047B0B544F60C05C5F6CD
:103CD000020529684907296806D401F00701081A76
:103CE00018BF0120B0BD00BF21F0070108432860C4
:103CF000FFF78EFE044600BF55F8080C800407D479
:103D0000FFF786FE001BB0F57A7FF5D90120B0BD24
:103D10000020B0BD0000000080B500F0D1FF44F2EB
:103D200020414BF29C72C5F60201C0F60002096800
:103D3000C1F30211515C01F01F01C84080BD0000B9
:103D400080B544F2384EC5F6020E5EF8103C5EF8BF
:103D5000101C5EF80C2CC1F3053CDEF80410BCF11D
:103D6000000F19D0C9089FED3C1AD20601EAE27192
:103D700003F003026FF35F3100EE101AB8EE400A51
:103D8000DFE802F0022210225EF8381C89060DD40A
:103D90009FED331A18E000BF00218160C0E90011D7
:103DA00080BD00BF9FED2D1A0EE000BF5EF8381CED
:103DB00049F20002C0F2D032C1F3C10122FA01F18E
:103DC00001EE101AB8EE411ADEF800109FED253A08
:103DD0006FF35F2102EE101ADEF80010C1F34621E6
:103DE000B8EE422A013100EE032A00EE10CAB7EE07
:103DF000003AB8EE400A81EE000A32EE031A20EED5
:103E0000010A01EE101AB8EE411A80EE011ABCEE5A
:103E1000C11A80ED001ADEF80010C1F3064101312D
:103E200001EE101AB8EE411A80EE011ABCEEC11A6A
:103E300080ED011ADEF80010C1F30661013101EED8
:103E4000101AB8EE411A80EE010ABCEEC00A10EE5C
:103E5000101A816080BD00BF0024744A001BB74B5C
:103E60000024744C0000003980B544F2404EC5F681
:103E7000020E5EF8183C5EF8181C5EF8142CC1F3B4
:103E8000055CDEF80410BCF1000F19D0C9089FEDE5
:103E90003C1AD20501EAE27103F003026FF35F31CD
:103EA00000EE101AB8EE400ADFE802F002221022FB
:103EB0005EF8401C89060DD49FED331A18E000BF50
:103EC00000218160C0E9001180BD00BF9FED2D1A67
:103ED0000EE000BF5EF8401C49F20002C0F2D03292
:103EE000C1F3C10122FA01F101EE101AB8EE411A34
:103EF000DEF800109FED253A6FF35F2102EE101AF5
:103F0000DEF80010C1F34621B8EE422A013100EE7E
:103F1000032A00EE10CAB7EE003AB8EE400A81EE6E
:103F2000000A32EE031A20EE010A01EE101AB8EE72
:103F3000411A80EE011ABCEEC11A80ED001ADEF8BB
:103F40000010C1F30641013101EE101AB8EE411A1A
:103F500080EE011ABCEEC11A80ED011ADEF80010E5
:103F6000C1F30661013101EE101AB8EE411A80EE7C
:103F7000010ABCEEC00A10EE101A816080BD00BFBD
:103F80000024744A001BB74B0024744C0000003915
:103F90002DE9F0470446C07844F22C480007C5F6E6
:103FA000020828D5606E4FEA305103292AD8DFE88D
:103FB00001F0030B131B00BFD8F8001041F40031CF
:103FC000C8F8001010E000BF04F10800022102F060
:103FD0004BFA064680B906E004F12800022102F0FF
:103FE000D7FA064640B9606ED8F8241021F4401183
:103FF0000843C8F8240000266078C00706D135467B
:104000002FE000BF01266078C007F8D0A06D04281B
:104010003ED83546DFE800F004140E0B0B0000BF5D
:10402000D8F80000354640F40030C8F800002F46AC
:10403000C5B90DE004F12800002102F0A9FA04E05E
:1040400004F10800002102F00FFA05462F464DB991
:10405000D8F82400A16D20F0070000250843C8F817
:1040600024003746607840073AD5D4F8A4004FEAD8
:104070007050052818D8DFE800F0031D1123232312
:10408000D8F8000040F40030C8F8000018E000BF85
:104090000125012760784007E7D421E004F12800DA
:1040A000002102F075FA0AE0012501266078000778
:1040B0001AD44FE004F10800002102F0D5F90546BA
:1040C0002E461DB1607800070ED443E0D8F82C00CE
:1040D000D4F8A41020F4600000250843C8F82C0090
:1040E0003E466078000735D5D4F8A8004FEA306026
:1040F000052813D8DFE800F004180C1E1E1E00BFB0
:10410000D8F8000040F40030C8F8000012E000BF0A
:1041100004F12800002102F03BFA0AE00125012702
:10412000E07880071AD434E004F10800002102F09E
:104130009BF905462F461DB1E07880070ED428E094
:10414000D8F82C00D4F8A81020F0E060002508432F
:10415000C8F82C003746E07880071AD5E06C4FEAA3
:104160003010032838D8DFE800F009032D0900BF1C
:10417000D8F8000040F40030C8F800002E464DB9D1
:10418000D8F82000E16C20F0300000250843C8F882
:1041900020003E466078C00639D5E06D4FEA3030E9
:1041A000042847D8DFE800F004221C0A0A0000BFF8
:1041B000D8F8000040F40030C8F800002F463DBB9E
:1041C0001CE000BF04F10800022102F04DF9054691
:1041D000002D2E46DED1D3E701250126DAE700BF08
:1041E00004F12800002102F0D3F904E004F10800F2
:1041F000002102F039F905462F464DB9D8F82400C0
:10420000E16D20F4E04000250843C8F8240037465B
:104210006078800635D5206E4FEA3040052815D8E5
:10422000DFE800F0041A0E04040400BF2E46DDB9D6
:104230001EE000BF0125012760788006EBD420E056
:1042400004F12800012102F0A3F90AE0012501266A
:104250006078400619D449E004F10800012102F019
:1042600003F905462E461DB1607840060DD43DE0A9
:10427000D8F82400216E20F4E02000250843C8F877
:1042800024003E466078400630D5D4F8AC004FEAB2
:10429000307005280ED8DFE800F00313070303038E
:1042A0002F46ADB918E000BF04F12800012102F04B
:1042B0006FF90AE001250127607800061AD43CE076
:1042C00004F10800012102F0CFF805462F461DB188
:1042D000607800060ED430E0D8F82C00D4F8AC108A
:1042E00020F0E04000250843C8F82C0037466078ED
:1042F000000622D5E06E58B1B0F1005F0CD0B0F1ED
:10430000805F37D1D8F8000040F40030C8F80000D2
:104310002E469DB908E000BF04F10800012102F01B
:10432000A3F805462E464DB9D8F82400E16E20F0DA
:10433000405000250843C8F824003E46E078C007F6
:104340001DD0A06C032855D8DFE800F008024A0809
:10435000D8F8000040F40030C8F80000A9467DB944
:10436000D8F82000A16C20F0030000250843C8F80D
:10437000200004E001250126E078C007E1D1B14624
:10438000A078400602D44F4618E000BFD8F8D40306
:1043900040F48070C8F8D403FFF73AFB064600BF2C
:1043A000D8F8D403C00507D4FFF732FB801B64287C
:1043B000F6D90325032701E02F46FDB12078C00779
:1043C00000F06F80A06F4FEAF00005284ED8DFE8BC
:1043D00000F0035347030303002D2E4654D157E04A
:1043E00004F10800022102F03FF80546002DA9461D
:1043F000C6D1B5E701254FF00109C1E7D8F844104F
:10440000D4F8B000414011F4407F11D0D8F84410E6
:10441000D8F8442042F48032C8F84420D8F8442028
:1044200021F4407122F48032C8F84420C8F84410C6
:10443000B0F5807F40F0D082FFF7EAFA064641F2FD
:10444000883A0325032700BFD8F84400800700F10D
:10445000C182FFF7DDFA801B5045F5D9AEE700BFFA
:1044600004F12800012102F093F80AE00125012659
:104470002078800719D446E004F10800012101F0FA
:10448000F3FF05462E461DB1207880070DD43AE093
:10449000D8F82800A16F20F0380000250843C8F89C
:1044A00028003E46207880072DD5606F05280FD85C
:1044B000DFE800F004140804040400BF2F46ADB97F
:1044C00018E000BF04F12800012102F061F80AE0C1
:1044D000012501272078400719D447E004F108009E
:1044E000012101F0C1FF05462F461DB1207840078C
:1044F0000DD43BE0D8F82800616F20F007000025BC
:104500000843C8F828003746207840072ED5D4F84D
:10451000900005280ED8DFE800F00313070303031B
:104520002E46ADB918E000BF04F12800012102F0C9
:104530002FF80AE001250126207880061AD44BE0E6
:1045400004F10800012101F08FFF05462E461DB140
:10455000207880060ED43FE0D8F82C00D4F89010D4
:1045600020F0070000250843C8F82C003E462078BC
:10457000800631D5D4F88C004FEA307005280FD86A
:10458000DFE800F004140804040400BF2F46ADB9AE
:1045900018E000BF04F12800022101F0F9FF0AE051
:1045A00001250127207840061AD44BE004F10800C9
:1045B000002101F059FF05462F461DB12078400625
:1045C0000ED43FE0D8F82800D4F88C1020F0E0405A
:1045D00000250843C8F8280037462078400631D522
:1045E000D4F898004FEAB02005280FD8DFE800F093
:1045F00004140804040400BF2E46ADB918E000BF3F
:1046000004F12800022101F0C3FF0AE00125012680
:10461000207800061AD44EE004F10800002101F0D1
:1046200023FF05462E461DB1207800060ED442E039
:10463000D8F82C00D4F8981020F4E0500025084356
:10464000C8F82C003E462078000634D5D4F89C00EB
:104650004FEA7030052815D8DFE800F0041A0E0480
:10466000040400BF2F46E5B12068010727D4C10626
:104670003ED4000355D477E004F12800022101F074
:1046800087FF0AE00125012720680107EFD516E022
:1046900004F10800002101F0E7FE0546002D2F4639
:1046A000E2D1D8F82C00D4F89C1020F4604000250A
:1046B0000843C8F82C00374620680107D7D5D4F83E
:1046C0008000B0F5805F09D104F12800022101F0DB
:1046D0005FFF002818BF0127D4F88000D8F8281001
:1046E00021F440510843C8F828002068C106C0D50D
:1046F000D4F89400B0F5807F09D104F1280002219C
:1047000001F046FF002818BF0127D4F89400D8F81C
:104710002C1021F440710843C8F82C0020680003D5
:1047200022D5D4F8A000B0F5003F11D0B0F5803FFD
:1047300008D0002844D104F10800002101F094FEC3
:1047400005E000BF04F12800022101F021FF054629
:104750002E4655B9D8F82C00D4F8A01020F44030DB
:1047600000250843C8F82C003E46A07840072CD509
:10477000D4F88400B0F5401F0BD0B0F5001F0BD06B
:10478000B0F5801F2AD1D8F8000040F40030C8F8F6
:1047900000002F46D5B907E004F12800012101F0FF
:1047A000F7FE05462F468DB9D8F82800D4F88410B6
:1047B00020F4401000250843C8F8280005E000BF99
:1047C00001250126A0784007D2D43746A078C0073B
:1047D00009D13E462168880015D532E00125012720
:1047E000A078C007F5D0206DB0F5803F10D018BB81
:1047F000D8F8000040F40030C8F800002E4685B11B
:10480000216888001DD460688A0326D465E000BF53
:1048100004F10800022101F027FE0546002D2E4676
:10482000EED1D8F82000216D20F480300025084317
:10483000C8F82000CDE700BF0125012621688800C7
:10484000E1D504F12800022101F0A2FE002818BFE2
:104850000126D4E900108A033FD5E26F6FF001030F
:1048600003EB3223022B0BD34FEA322343B1012B4C
:1048700040F0AA80D8F8003043F40033C8F8003084
:1048800025B3CA022CD48A0234D44A003CD4CA0FBD
:1048900049D1090251D4C1075AD1810763D44107D4
:1048A0006CD4010776D4C10600F18080800607D55C
:1048B00004F12800022101F06BFE002818BF012539
:1048C000002D18BF01252846BDE8F087D8F828300C
:1048D00023F440731A43C8F828203546CA02D2D5BB
:1048E000D8F82420236F22F000421A43C8F824206D
:1048F0008A02CAD5D8F82420A36E22F080721A4307
:10490000C8F824204A00C2D558F81C2C22F40042D2
:1049100048F81C2CD4F8B42058F81C3C1A4348F82A
:104920001C2CCA0FB5D0D8F82020636D22F040525D
:104930001A43C8F820200902ADD5D8F82810D4F8B9
:10494000882021F440011143C8F82810C107A4D0E1
:1049500004F10800002101F087FD002818BF05467A
:10496000606881079BD504F10800012101F07CFDFE
:10497000002818BF05466068410792D504F1080079
:10498000022101F071FD002818BF0546606801078B
:104990007FF589AF04F12800002101F0F9FD00281E
:1049A00018BF05466068C1067FF580AF04F1280096
:1049B000012101F0EDFD002818BF05466068800662
:1049C0003FF576AF7CE700BF0125CA027FF55BAFFC
:1049D00086E700BFD4F8B0004FF6CF7358F81C2C10
:1049E000C0F2FF0300F4407122F47C5203EA10137A
:1049F0006FF31F30B1F5407F08BF1A43002548F818
:104A00001C2CD8F844100843C8F84400FFF7BBBC7E
:104A10002DE9F04381B0002800F0208142F2000926
:104A20000446C5F20029D9F8000000F00F008142C9
:104A30000DD9D9F8000020F00F000843C9F8000094
:104A4000D9F8000000F00F00884240F0078120688C
:104A500044F218464207C5F602060AD522693368B1
:104A600003F070039A4204D9336823F070031A43A9
:104A7000326002070AD56269736803F070039A42D4
:104A800004D9736823F070031A437260C2060AD512
:104A9000A269736803F4E0639A4204D9736823F44B
:104AA000E0631A43726082060AD5E269B36803F0D4
:104AB00070039A4204D9B36823F070031A43B260BA
:104AC00010F002020AD0E368376807F00F07BB4214
:104AD00004D9376827F00F073B433360C3073FD043
:104AE000306820F47062D4E901031A43326001286F
:104AF00056F8182C0AD0032804D002280AD19203B1
:104B00000BD4ABE0920108D4A8E000BFD20504D4D6
:104B1000A4E000BF520740F1A180884656F8081C67
:104B200021F00701084346F8080CFEF771FF05461F
:104B300041F2883756F8080C616800F03800B0EB95
:104B4000C10F09D0FEF764FF401BB842F2D9032021
:104B500001B0BDE8F08300BF2068414600F00202CA
:104B600052B1E268336803F00F039A4204D233680B
:104B700023F00F031A433260D9F8002002F00F022D
:104B800091420CD2D9F8002022F00F020A43C9F852
:104B90000020D9F8002002F00F028A425ED14107BE
:104BA0000AD52169326802F07002914204D232685B
:104BB00022F070021143316001070AD56169726801
:104BC00002F07002914204D2726822F07002114326
:104BD0007160C1060AD5A169726802F4E06291426F
:104BE00004D2726822F4E0621143716080060AD533
:104BF000E069B16801F07001884204D2B16821F027
:104C000070010843B06000F0E3F831684BF29C7229
:104C1000C0F60002C1F30321515C336803F00F03B7
:104C200001F01F01D25C20FA01F102F01F0040F2F6
:104C30000C02C2F2004221FA00F0106040F20400BF
:104C400040F20802C2F20040C2F200420068116065
:104C500001B0BDE8F043FEF727BF00BF012001B05F
:104C6000BDE8F083000000003F22026044F21842D9
:104C7000C5F6020252F8083C03F0070343601368CC
:104C800003F470638360136803F00F03C360136859
:104C900003F070030361536803F0700343615368CA
:104CA00003F4E0638361926802F07002C26142F231
:104CB0000000C5F20020006800F00F000860704797
:104CC00080B500F085F844F218414BF29C73C5F6AC
:104CD0000201C0F600030A68C2F303229A5C096865
:104CE00001F00F0102F01F02595C20FA02F201F0FC
:104CF0001F0040F20C01C2F2004122FA00F00860ED
:104D000040F20801C2F200410A6080BD00000000CC
:104D100080B500F05DF844F2184C4BF29C73C5F678
:104D2000020CC0F60003DCF80020C2F303229A5CF8
:104D3000DCF8001001F00F0102F01F02595CD040B6
:104D400040F20C02C2F2004201F01F0120FA01F110
:104D5000116040F20802C2F200421060DCF8040068
:104D6000C0F30210185C00F01F0021FA00F080BDB3
:104D700080B500F02DF844F2184C4BF29C73C5F648
:104D8000020CC0F60003DCF80020C2F303229A5C98
:104D9000DCF8001001F00F0102F01F02595CD04056
:104DA00040F20C02C2F2004201F01F0120FA01F1B0
:104DB000116040F20802C2F200421060DCF8040008
:104DC000C0F30220185C00F01F0021FA00F080BD43
:104DD00044F20041C5F602010869C0F3C20003288D
:104DE00016D002280ED0002832D10868800649F279
:104DF0000000C0F2D03058BF70470968C1F3C1014C
:104E0000C840704743F20060C0F26E10704700BFA8
:104E10008B6A886AD1F82CC04A6BC0F30510E8B1E0
:104E2000C2F3CC0203F0030300EE102A9FED2A1A0E
:104E3000B8EE400A20EE010A9FED281ADFE803F0E1
:104E4000022110210A6892060ED49FED261A18E05E
:104E500040F60010C0F23D00704700BF00207047D0
:104E60009FED1F1A0DE000BF0A6849F20003C0F26F
:104E7000D033C2F3C10223FA02F201EE102AB8EED7
:104E8000411A0A6B9FED183A6FF35F2202EE102A67
:104E90005FEACC7203FE000A03EE100A086BB8EE5C
:104EA000422AC0F34620B8EE433A013030EE020AFF
:104EB000B7EE002A81EE031A30EE020A21EE000A54
:104EC00001EE100AB8EE411A80EE010ABCEEC00AEB
:104ED00010EE100A704700BF000000390024744A29
:104EE000001BB74B0024744C0000000000000000C1
:104EF00070B3F0B581B00446007844F20046C007B4
:104F0000C5F6020626D1207880076AD5306910F0F0
:104F10003801B06A42D0182908BF5FEA80703DD0DE
:104F2000E0683168002800F02D8121F01901084364
:104F30003060FEF76DFD0546306840074AD4FEF745
:104F400067FD401B0228F7D9032001B0F0BD00BF68
:104F500001207047306900F03801B06A102905D08F
:104F600018290BD100F00300022807D13068800314
:104F7000C9D560680028C6D1AAE000BF6168306862
:104F8000002900F03981B1F5A02F00F02D81B1F595
:104F9000803F40F0478140F4803049E1306840076D
:104FA000E06802D5002800F09380316821F01901F3
:104FB00008433060FEF72CFD054600BF306840070F
:104FC00008D4FEF725FD401B02284FF00300F5D959
:104FD00001B0F0BD7068216920F0FE4040EA016038
:104FE00070602078C0061AD5306900F03801B06AC8
:104FF000082907D0182940F0858000F00300012817
:1050000040F080803068C00502D5E06980285FD11B
:10501000F068216A20F07C5040EA0160F06020785E
:1050200000073FD42078800656D42078400700F14E
:105030008180656A9DB3306900F03800182840F01F
:105040001981012DB16A306B42D001F00302A36ACD
:105050009A423DD1C1F30511E26A914238D101462D
:10506000226B6FF35F21013A914231D1C0F34622A6
:10507000616B01398A422BD1C0F30642A16B013921
:105080008A4225D1C0F30660E16B013988421FD105
:10509000706BA16CC0F3CC00814240F0A581002070
:1050A00001B0F0BD60690028706F59D040F0010078
:1050B0007067FEF7ADFC0546706F8007B2D4FEF74F
:1050C000A7FC401B0228F7D9032001B0F0BD00BFA8
:1050D000012001B0F0BD00BFA0690028306871D088
:1050E00040F480503060FEF793FC05463068800441
:1050F0009BD4FEF78DFC401B0228F7D9032001B09A
:10510000F0BD00BFE0690028306800F0A18040F0E9
:1051100080003060FEF77CFC054600BF3068C005AB
:105120003FF576AFFEF774FC401B02284FF00300FA
:10513000F4D94DE7D6F8000440F48070C6F80004B6
:10514000FEF766FC054600BFD6F80004C0052BD468
:10515000FEF75EFC401B6428F6D9032001B0F0BDC9
:1051600020F001007067FEF753FC0546706F800762
:105170007FF558AFFEF74CFC401B02284FF00300B0
:10518000F4D925E721F001003060FEF741FC054627
:10519000306840077FF525AFFEF73AFC401B022838
:1051A0004FF00300F4D913E7A168306F002900F035
:1051B0008B80052900F08080012940F09D8040F01F
:1051C00001009FE020F480503060FEF721FC05468E
:1051D000306880047FF529AFFEF71AFC401B0228D7
:1051E0004FF00300F4D9F3E640F4802030603068DB
:1051F00040F480301CE000BF20F480303060306824
:1052000020F480203060FEF703FC05463068800300
:105210007FF579AEFEF7FCFB401B64284FF00300DE
:10522000F4D9D5E620F480303060306820F4802056
:105230003060FEF7EDFB0546306880033FF563AE56
:10524000FEF7E6FB401B6428F6D9032001B0F0BD51
:1052500020F080003060FEF7DBFB05463068C005BB
:105260007FF5DDAEFEF7D4FB401B02284FF00300B4
:10527000F4D9ADE6306820F080703060FEF7C8FBEE
:10528000022D05460CD100BF306880014CD5FEF7D9
:10529000BFFB401B02284FF00300F5D998E600BF82
:1052A000306880017FF5FBAEFEF7B2FB401B0228A1
:1052B0004FF00300F4D98BE640F004003067306F04
:1052C00040F001001EE000BF20F001003067306FA9
:1052D00020F004003067FEF79BFB054641F288375B
:1052E000306F80077FF5A5AEFEF792FB401BB842FA
:1052F0004FF00300F4D96BE620F001003067306F07
:1053000020F004003067FEF783FB054641F2883742
:10531000306F80073FF58DAEFEF77AFB401BB84239
:105320004FF00300F4D953E604F12807B06A40F2C5
:10533000F33188438ECF0843591E40EA02104FF4E0
:105340007E426FF35F21B06202EB47204FF4FE0212
:1053500080B2E36B0844A16B02EB01414FF0FE42C7
:1053600001F4FE0102EB0362084402F0FE4108442E
:105370003063F06A4FF6F87120F00100F062706B54
:10538000A26C884340EAC2007063F06A216C20F08E
:105390000C000843F062F06A616C20F002000843E0
:1053A000F062F06A40F48030F062F06A40F400305D
:1053B000F062F06A40F48020F062F06A40F0010090
:1053C000F062306840F080703060FEF721FB0446E8
:1053D000306880013FF563AEFEF71AFB001B022820
:1053E0004FF00300F4D9F3E5F06A20F00100F06219
:1053F000FEF70EFB0546FEF70BFBA842FBD0706BD9
:105400004FF6F871A26C884340EAC2007063F06AFC
:1054100040F00100F062002001B0F0BD000000008B
:10542000704700000000000070470000000000000E
:10543000704700000000000060B310B5044690F80B
:105440003D0028B9002084F83C00204600F024F8F4
:10545000022084F83D002068211D01F0D5FB0120C9
:1054600084F8480084F83E0084F83F0084F8400047
:1054700084F8410084F8420084F8430084F8440032
:1054800084F8450084F8460084F8470084F83D001D
:10549000002010BD01207047704700000000000090
:1054A00090F83D10012927D1022180F83D100168B4
:1054B0004DF6FF70C4F200008142C86840F0010060
:1054C000C8601BDC40F2FF70C4F2000081422DDD99
:1054D00040F60000C4F2000081423DD040F600409A
:1054E000C4F20000814237D041F60000C4F200004F
:1054F000814231D03CE000BF012070474FF6FF7081
:10550000C4F2000081421BDD0020C4F20100814290
:1055100022D044F20000C4F2010081421CD040F2CB
:105520000040C4F20100814216D021E0B1F1804F69
:1055300012D040F20040C4F2000081420CD017E0CB
:105540004EF20000C4F20000814205D04EF200404D
:10555000C4F2000081420BD107228868C0F2010228
:1055600002400020062A18BFB2F5803F00D17047E4
:10557000086840F00100086000207047000000004B
:105580007047000000000000F0B581B004460068DC
:10559000C5680669B10717D515F0020114D06FF080
:1055A00002010161012121778069800704D0204632
:1055B000FFF7E6FF06E000BF204600F09DF820461A
:1055C00000F09EF800202077700719D515F0040030
:1055D00016D020686FF004010161022121778069F3
:1055E00010F4407F04D02046FFF7CAFF06E000BF5A
:1055F000204600F081F8204600F082F80020207755
:10560000300717D515F0080014D020686FF0080196
:10561000016104212177C069800703D02046FFF78C
:10562000AFFF05E0204600F067F8204600F068F87C
:1056300000202077F00619D515F0100016D020684C
:105640006FF01001016108212177C06910F4407FDB
:1056500004D02046FFF794FF06E000BF204600F08C
:105660004BF8204600F04CF800202077F00718BFD8
:1056700015F0010006D020686FF00101016120469D
:1056800000F042F805F0800716F4025F18BF002F03
:1056900002D1F00509D410E020686FF402510161D5
:1056A0002046FFF7C1FEF00507D537B120686FF43B
:1056B000807101612046FFF7B3FE700609D515F031
:1056C000400006D020686FF040010161204600F0E4
:1056D00027F8B0060CD515F0200009D020686FF02F
:1056E00020010161204601B0BDE8F040FFF7A0BEF7
:1056F00001B0F0BD00000000704700000000000095
:10570000704700000000000041F200410068C4F250
:105710000001884218BF7047FEF782B90000000000
:10572000704700000000000090F88410012901D1AA
:10573000022070472421C0F8881001680A680B68AD
:1057400022F0005223F001030B60002343660A603D
:105750002021C0F8881080F88430002070470000B5
:10576000D0F88C30202B07D110B504460120002939
:1057700018BF002A02D110BD02207047E066002049
:105780002067204602F060F8002818BF10BDE06EC8
:1057900001282DD1206810210162206850E8000FF7
:1057A000216840F0100041E80002002A1FBF206875
:1057B00050E8000F216840F010001CBF41E80002D3
:1057C000002A17D0206850E8000F216840F0100030
:1057D00041E8000272B1206850E8000F216840F0F3
:1057E000100041E800020020002AD6D1C3E700BF24
:1057F000012010BD002010BD12290BD1014640F23E
:105800008850C2F200400268914218BF7047011DE3
:1058100002F062BD70470000704700000000000009
:1058200090F88420012A01D10220704770B524220B
:10583000C0F888200268D0F864E0BEF1000FD2F80A
:1058400000C0136823F001031360936823F06063C2
:1058500041EA0301916019D091684BF2D47E9368BC
:10586000C0F6000E5B0F4BF2DC75C1F34266C0F66A
:1058700000051EF80340E95C2301B3FBF1F11EF8BB
:105880000630AE5D1B01B3FBF6F301E001210123FD
:10589000A0F86A102021A0F86830C2F800C0C0F853
:1058A0008810002180F88410002070BD00000000E6
:1058B00090F88420012A01D10220704770B524227B
:1058C000C0F888200268D0F864E0BEF1000FD2F87A
:1058D00000C0136823F001031360936823F0604352
:1058E00041EA0301916019D091684BF2D47E93682C
:1058F000C0F6000E5B0F4BF2DC75C1F34266C0F6DA
:1059000000051EF80340E95C2301B3FBF1F11EF82A
:105910000630AE5D1B01B3FBF6F301E0012101236C
:10592000A0F86A102021A0F86830C2F800C0C0F8C2
:105930008810002180F88410002070BD0000000055
:1059400070470000000000007047000000000000E9
:1059500040F28851C2F200410968884218BF70477E
:10596000016840F28850C2F2004008220A6202F048
:105970001FBC00000000000070B5016840F62F0257
:10598000CB691A40202A0A688E680BD102F02004E5
:1059900006F080552D1917D0416F69B3BDE87040EE
:1059A000084700BF40F60F052B420DD0012540F2FD
:1059B0002014C1F20005C0F2004406EA050C02EA18
:1059C000040515EB0C0525D1DD06C46E16D5012C9A
:1059D00014D112F0100511D010220A62896849060C
:1059E00066D4B0F85C10B0F85E20B0F85E30002BE2
:1059F00018BF914240F0688270BD00BFDD0215D52E
:105A000016F4800512D04FF480120A62BDE870408F
:105A1000FFF79ABFDD0718BF12F4807540F02A81A6
:105A20009D0706F0010E00F131813AE1190606D515
:105A300002F0800106F40006891940F0CB82590675
:105A400040F10C8112F0400100F00881016851E83A
:105A5000001F026821F0400142E80013F3B1016821
:105A600051E8001F026821F0400142E80013002BBA
:105A70001FBF016851E8001F026821F040011CBFF0
:105A800042E80013002B09D0016851E8001F0268AA
:105A900021F0400142E80013002BD7D12021C0F8AB
:105AA000881000218167BDE8704000F079BB00BF1D
:105AB000D0F8802011684B68B0F85C4099B200299A
:105AC00000F0C280A14280F0BF80A0F85E30D169B2
:105AD000B1F5807F00F0AC80016851E8001F0268DA
